00COTAHIST.2021BOVESPA 20211111                                                                                                                                                                                                                      
012021111102A1BB34      010ABB LTD     DRN          R$  000000000470000000000047000000000004696000000000469700000000046960000000004696000000000520000003000000000000000077000000000000361692000000000000009999123100000010000000000000BRA1BBBDR009101
012021111102A1CR34      010AMCOR PLC   DRN          R$  000000000668500000000066850000000006685000000000668500000000066850000000006551000000000000000001000000000000000003000000000000020055000000000000009999123100000010000000000000BRA1CRBDR003104
012021111102A1DI34      010ANALOG DEVICDRN          R$  000000004909500000000493700000000049095000000004910600000000493700000000000000000000000000000003000000000000000058000000000002848165000000000000009999123100000010000000000000BRA1DIBDR000107
012021111102A1DM34      010ARCHER DANIEDRN          R$  000000003590000000000359000000000035900000000003590000000000359000000000000000000000000000000001000000000000000006000000000000215400000000000000009999123100000010000000000000BRA1DMBDR002107
012021111102A1EG34      010AEGON NV    DRN          R$  000000000263600000000026360000000002636000000000263600000000026360000000002200000000000269000002000000000000000004000000000000010544000000000000009999123100000010000000000000BRA1EGBDR002102
012021111102A1EP34      010AMERICAN ELEDRN ED       R$  000000002260000000000226000000000022600000000002260000000000226000000000000000000000000000000001000000000000000001000000000000022600000000000000009999123100000010000000000000BRA1EPBDR003108
012021111102A1GI34      010AGILENT TECHDRN          R$  000000004285700000000429450000000042857000000004289300000000429010000000000000000000000000000043000000000000000043000000000001844431000000000000009999123100000010000000000000BRA1GIBDR003107
012021111102A1IV34      010APARTMENT INDRN          R$  000000000427300000000042730000000004273000000000427300000000042730000000004100000000000437500002000000000000000006000000000000025638000000000000009999123100000010000000000000BRA1IVBDR002106
012021111102A1JG34      010ARTHUR J GALDRN          R$  000000004385000000000438500000000043850000000004385000000000438500000000000000000000004750000001000000000000000012000000000000526200000000000000009999123100000010000000000000BRA1JGBDR001107
012021111102A1KA34      010AKAMAI TECHNDRN          R$  000000000496400000000049640000000004931000000000493300000000049310000000004400000000000504700002000000000000000027000000000000133203000000000000009999123100000010000000000000BRA1KABDR002101
012021111102A1LB34      010ALBEMARLE CODRN          R$  000000014500000000001464380000000144700000000014481500000001464380000000000000000000000000000005000000000000000046000000000006661500000000000000009999123100000010000000000000BRA1LBBDR008107
012021111102A1LG34      010ALIGN TECHNODRN          R$  000000009498300000000949830000000092500000000009258000000000930050000000079050000000011000000004000000000000000037000000000003425493000000000000009999123100000010000000000000BRA1LGBDR007100
012021111102A1LL34      010ALLIANCE DATDRN EDC      R$  000000001074700000000109010000000010710000000001088200000000108700000000010790000000000000000009000000000000000422000000000004592261000000000000009999123100000010000000000000BRA1LLBDR007109
012021111102A1MD34      010ADVANCED MICDRN          R$  000000007999900000000799990000000076187000000007774600000000792160000000077770000000007921600479000000000000003442000000000267602133000000000000009999123100000010000000000000BRA1MDBDR002100
012021111102A1ME34      010AMETEK INC  DRN          R$  000000003784800000000378480000000037848000000003784800000000378480000000000000000000000000000001000000000000000001000000000000037848000000000000009999123100000010000000000000BRA1MEBDR000107
012021111102A1MP34      010AMERIPRISE FDRN ED       R$  000000004167400000000416740000000041674000000004167400000000416740000000000000000000004400000001000000000000000051000000000002125374000000000000009999123100000010000000000000BRA1MPBDR006108
012021111102A1MT34      010APPLIED MATEDRN          R$  000000008265000000000828880000000082099000000008270100000000828880000000000000000000000000000008000000000000000111000000000009179847000000000000009999123100000010000000000000BRA1MTBDR008107
012021111102A1MX34      010AMERICAMOVILDRN ED       R$  000000000492500000000049250000000004920000000000492200000000049200000000000000000000000493000002000000000000000002000000000000009845000000000000009999123100000010000000000000BRA1MXBDR000103
012021111102A1NE34      010ARISTA NETWODRN          R$  000000007076700000000707670000000070767000000007076700000000707670000000069500000000007770000001000000000000000020000000000001415340000000000000009999123100000010000000000000BRA1NEBDR008100
012021111102A1NT34      010ANTHEM INC  DRN          R$  000000004653000000000465300000000046530000000004653000000000465300000000000000000000000000000001000000000000000027000000000001256310000000000000009999123100000010000000000000BRA1NTBDR006107
012021111102A1PA34      010APA CORP    DRN          R$  000000001649500000000164950000000016000000000001611200000000160000000000000000000000001735900004000000000000000143000000000002304091000000000000009999123100000010000000000000BRA1PABDR001108
012021111102A1RE34      010ALEXANDRIA RDRN          R$  000000002774800000000277480000000027748000000002774800000000277480000000026130000000002940000001000000000000000004000000000000110992000000000000009999123100000010000000000000BRA1REBDR009107
012021111102A1SN34      010ASCENDIS PHADRN          R$  000000000578400000000057840000000005784000000000578400000000057840000000003700000000000671700001000000000000000002000000000000011568000000000000009999123100000010000000000000BRA1SNBDR008100
012021111102A1SU34      010ASSURANT INCDRN          R$  000000002177000000000217700000000021770000000002177000000000217700000000000000000000002203800002000000000000000010000000000000217700000000000000009999123100000010000000000000BRA1SUBDR003106
012021111102A1TH34      010AUTOHOME INCDRN          R$  000000000208400000000020840000000002084000000000208400000000020840000000002000000000000280000001000000000000000004000000000000008336000000000000009999123100000010000000000000BRA1THBDR008101
012021111102A1UA34      010ANGLOGOLD ASDRN          R$  000000000295000000000029670000000002820000000000291600000000028260000000002724000000000291600028000000000000001499000000000004372503000000000000009999123100000010000000000000BRA1UABDR001102
012021111102A1UT34      010AUTODESK INCDRN          R$  000000004385000000000440890000000043736000000004381200000000437360000000041531000000000000000085000000000000000105000000000004600278000000000000009999123100000010000000000000BRA1UTBDR001100
012021111102A1VB34      010AVALONBAY CODRN          R$  000000003240000000000325000000000032400000000003242000000000325000000000000000000000003499000003000000000000000005000000000000162100000000000000009999123100000010000000000000BRA1VBBDR007107
012021111102A1ZN34      010ASTRAZENECA DRN          R$  000000000578900000000057890000000005653000000000567600000000056880000000005653000000000568800149000000000000004692000000000026632646000000000000009999123100000010000000000000BRA1ZNBDR003102
012021111102A2MC34      010AMC ENTERT HDRN          R$  000000000345700000000035790000000003455000000000354000000000035490000000002900000000000373600008000000000000000091000000000000322219000000000000009999123100000010000000000000BRA2MCBDR002100
012021111102AALL34      010AMERICAN AIRDRN          R$  000000001179400000000117940000000011570000000001161800000000115700000000011056000000001205000123000000000000001948000000000022633144000000000000009999123100000010000000000000BRAALLBDR003115
012021111102AALR3       010ALLIAR      ON      NM   R$  000000000139100000000014120000000001339000000000137200000000013560000000001355000000000135604498000000000001372600000000001883381100000000000000009999123100000010000000000000BRAALRACNOR6102
012021111102AAPL34      010APPLE       DRN ED       R$  000000000806000000000081000000000007971000000000802500000000079780000000007978000000000799501991000000000000120235000000000964939451000000000000009999123100000010000000000000BRAAPLBDR004140
012021111102ABBV34      010ABBVIE      DRN          R$  000000006284800000000632320000000062784000000006292400000000630670000000062795000000000000000006000000000000000075000000000004719338000000000000009999123100000010000000000000BRABBVBDR001123
012021111102ABCB4       010ABC BRASIL  PN      N2   R$  000000000170400000000017040000000001661000000000168000000000016800000000001674000000000168005455000000000000855500000000001438083800000000000000009999123100000010000000000000BRABCBACNPR4138
012021111102ABEV3       010AMBEV S/A   ON           R$  000000000179300000000017940000000001760000000000177500000000017610000000001761000000000176540861000000000024597200000000043670437000000000000000009999123100000010000000000000BRABEVACNOR1124
012021111102ABTT34      010ABBOTT      DRN          R$  000000001736300000000173630000000017297000000001733400000000172970000000014600000000001750000003000000000000000299000000000005183163000000000000009999123100000010000000000000BRABTTBDR007140
012021111102ABUD34      010AB INBEV    DRN          R$  000000000542500000000054360000000005406000000000541700000000054180000000005350000000000541800005000000000000001908000000000010337497000000000000009999123100000010000000000000BRABUDBDR009104
012021111102ADBE34      010ADOBE INC   DRN          R$  000000000710700000000071150000000006900000000000701900000000069860000000006950000000000698600307000000000000023004000000000161465228000000000000009999123100000010000000000000BRADBEBDR003101
012021111102ADPR34      010AUTOMATIC DTDRN          R$  000000006170000000000619000000000061700000000006187200000000619000000000043055000000000000000002000000000000000058000000000003588600000000000000009999123100000010000000000000BRADPRBDR005109
012021111102AERI3       010AERIS       ON      NM   R$  000000000081400000000008280000000000798000000000081400000000008150000000000815000000000081603976000000000003032800000000002470636000000000000000009999123100000010000000000000BRAERIACNOR4100
012021111102AESB3       010AES BRASIL  ON      NM   R$  000000000118600000000011990000000001170000000000118300000000011780000000001175000000000117802741000000000000707300000000000836940300000000000000009999123100000010000000000000BRAESBACNOR7102
012021111102AFLT3       010AFLUENTE T  ON           R$  000000000086500000000008750000000000865000000000086700000000008650000000000865000000000088900005000000000000000500000000000000433500000000000000009999123100000010000000000000BRAFLTACNOR1117
012021111102AGRO3       010BRASILAGRO  ON      NM   R$  000000000279900000000028120000000002749000000000278000000000027590000000002759000000000276005397000000000001069700000000002974264300000000000000009999123100000010000000000000BRAGROACNOR7111
012021111102AGXY3       010AGROGALAXY  ON      NM   R$  000000000079000000000008900000000000790000000000084300000000008450000000000820000000000085000086000000000000041700000000000035170300000000000000009999123100000010000000000000BRAGXYACNOR4100
012021111102AIGB34      010AIG GROUP   DRN          R$  000000003193600000000319360000000031808000000003182200000000318080000000000000000000003330000002000000000000000009000000000000286400000000000000009999123100000010000000000000BRAIGBBDR007120
012021111102AIRB34      010AIRBNB      DRN          R$  000000000526000000000053800000000005195000000000525000000000052000000000005170000000000520000383000000000000052978000000000278137063000000000000009999123100000010000000000000BRAIRBBDR004100
012021111102ALLD3       010ALLIED      ON      NM   R$  000000000172000000000017970000000001661000000000174300000000017950000000001784000000000179502591000000000000475000000000000828161800000000000000009999123100000010000000000000BRALLDACNOR3101
012021111102ALPA3       010ALPARGATAS  ON  EDJ N1   R$  000000000354500000000035450000000003544000000000354400000000035440000000003500000000000365000005000000000000000800000000000002835500000000000000009999123100000010000000000000BRALPAACNOR0230
012021111102ALPA4       010ALPARGATAS  PN  EDJ N1   R$  000000000424200000000043490000000004186000000000423400000000042150000000004212000000000421516174000000000002698000000000011424936300000000000000009999123100000010000000000000BRALPAACNPR7230
012021111102ALPK3       010ESTAPAR     ON      NM   R$  000000000055900000000005590000000000514000000000053200000000005180000000000517000000000051800079000000000000044800000000000023841000000000000000009999123100000010000000000000BRALPKACNOR9101
012021111102ALSO3       010ALIANSCSONAEON      NM   R$  000000000215400000000022780000000002150000000000224100000000022400000000002234000000000224009815000000000002678100000000006002733700000000000000009999123100000010000000000000BRALSOACNOR5101
012021111102ALUP3       010ALUPAR      ON      N2   R$  000000000081000000000008210000000000810000000000081500000000008150000000000811000000000081600040000000000000005300000000000004324000000000000000009999123100000010000000000000BRALUPACNOR8112
012021111102ALUP4       010ALUPAR      PN      N2   R$  000000000083900000000008450000000000832000000000083800000000008320000000000831000000000083700034000000000000003900000000000003270300000000000000009999123100000010000000000000BRALUPACNPR5112
012021111102ALUP11      010ALUPAR      UNT     N2   R$  000000000250000000000025120000000002473000000000249000000000024800000000002479000000000248103074000000000000725900000000001808055300000000000000009999123100000010000000000000BRALUPCDAM15112
012021111102AMAR3       010LOJAS MARISAON      NM   R$  000000000050300000000005230000000000493000000000051200000000005210000000000520000000000052110051000000000008883700000000004551581800000000000000009999123100000010000000000000BRAMARACNOR4112
012021111102AMBP3       010AMBIPAR     ON      NM   R$  000000000409700000000043850000000004045000000000425800000000043100000000004310000000000431806580000000000001747800000000007442617300000000000000009999123100000010000000000000BRAMBPACNOR6101
012021111102AMER3       010AMERICANAS  ON      NM   R$  000000000348000000000036410000000003421000000000354800000000035340000000003534000000000353515562000000000005300400000000018806315700000000000000009999123100000010000000000000BRAMERACNOR6100
012021111102AMGN34      010AMGEN       DRN          R$  000000000417700000000041770000000004058000000000408600000000041050000000004070000000000438500008000000000000005238000000000021402969000000000000009999123100000010000000000000BRAMGNBDR004140
012021111102AMZO34      010AMAZON      DRN          R$  000000001220000000000122030000000011937000000001209100000000119370000000011937000000001199201575000000000000074349000000000898993722000000000000009999123100000010000000000000BRAMZOBDR002102
012021111102ANIM3       010ANIMA       ON      NM   R$  000000000072800000000007630000000000715000000000074400000000007400000000000740000000000074108574000000000002319600000000001726496200000000000000009999123100000010000000000000BRANIMACNOR6107
012021111102APER3       010ALPER S.A.  ON      NM   R$  000000000351700000000035700000000003406000000000349700000000034800000000003410000000000348000772000000000000110900000000000387920000000000000000009999123100000010000000000000BRAPERACNOR9103
012021111102APTV34      010APTIV PLC   DRN          R$  000000004598900000000459900000000045425000000004589200000000458250000000000000000000005130000034000000000000001369000000000062827484000000000000009999123100000010000000000000BRAPTVBDR003102
012021111102ARML3       010ARMAC       ON      NM   R$  000000000256300000000026940000000002558000000000265500000000026660000000002662000000000266602619000000000000451600000000001199038800000000000000009999123100000010000000000000BRARMLACNOR1100
012021111102ARMT34      010ARCELOR     DRN          R$  000000000897000000000089700000000008735000000000879000000000087530000000008731000000000889800044000000000000001619000000000014231586000000000000009999123100000010000000000000BRARMTBDR008118
012021111102ARZZ3       010AREZZO CO   ON      NM   R$  000000000782600000000084870000000007786000000000819900000000080700000000008054000000000807007147000000000001348400000000011056680200000000000000009999123100000010000000000000BRARZZACNOR3140
012021111102ASAI3       010ASSAI       ON      NM   R$  000000000161500000000016240000000001578000000000160200000000015900000000001590000000000159117802000000000005555700000000008902597000000000000000009999123100000010000000000000BRASAIACNOR0103
012021111102ASML34      010ASML HOLD   DRN ED       R$  000000045120000000004523600000000448102000000045201700000004522750000000412200000000045227500027000000000000000188000000000084979258000000000000009999123100000010000000000000BRASMLBDR003105
012021111102ATOM3       010ATOMPAR     ON           R$  000000000036300000000003770000000000363000000000036600000000003650000000000364000000000036500103000000000000021900000000000008032000000000000000009999123100000010000000000000BRATOMACNOR1104
012021111102ATTB34      010ATT INC     DRN          R$  000000000459200000000045920000000004482000000000451200000000044820000000004482000000000457300095000000000000002914000000000013150025000000000000009999123100000010000000000000BRATTBBDR007138
012021111102ATVI34      010ACTIVISION  DRN          R$  000000003640900000000365190000000035853000000003624000000000364700000000036334000000003754600077000000000000000334000000000012104302000000000000009999123100000010000000000000BRATVIBDR008102
012021111102AURA33      010AURA 360    DR3          R$  000000000510000000000054730000000005080000000000531000000000054000000000005325000000000540016300000000000000411936000000002187742298000000000000009999123100000010000000000000BRAURABDR001104
012021111102AVGO34      010BROADCOM INCDRN          R$  000000000854200000000085500000000008485000000000852600000000085230000000000000000000000000000231000000000000005234000000000044627494000000000000009999123100000010000000000000BRAVGOBDR003111
012021111102AVLL3       010ALPHAVILLE  ON      NM   R$  000000000312000000000031200000000003120000000000312000000000031200000000002702000000000314000002000000000000000200000000000000624000000000000000009999123100000010000000000000BRAVLLACNOR5101
012021111102AXPB34      010AMERICAN EXPDRN          R$  000000000990000000000099000000000009800000000000981200000000098160000000009680000000001009400020000000000000001588000000000015581904000000000000009999123100000010000000000000BRAXPBBDR007139
012021111102AZEV3       010AZEVEDO     ON           R$  000000000041000000000004170000000000391000000000040100000000003920000000000392000000000039300866000000000000227200000000000091235200000000000000009999123100000010000000000000BRAZEVACNOR0119
012021111102AZEV4       010AZEVEDO     PN           R$  000000000033700000000003570000000000337000000000034500000000003440000000000340000000000034400559000000000000385400000000000133186600000000000000009999123100000010000000000000BRAZEVACNPR7119
012021111102AZUL4       010AZUL        PN      N2   R$  000000000269200000000029780000000002683000000000285500000000029040000000002901000000000290537887000000000017906300000000051124588400000000000000009999123100000010000000000000BRAZULACNPR4101
012021111102B1AM34      010BROOKFIELD ADRN          R$  000000000800500000000080100000000007937000000000800100000000079650000000007259000000000000000005000000000000000641000000000005128855000000000000009999123100000010000000000000BRB1AMBDR007107
012021111102B1AX34      010BAXTER INTERDRN          R$  000000002136200000000214620000000021212000000002145300000000214620000000000000000000000000000003000000000000000041000000000000879592000000000000009999123100000010000000000000BRB1AXBDR004107
012021111102B1BL34      010BHP GROUP PLDRN          R$  000000000575300000000057530000000005741000000000575200000000057410000000005354000000000580000003000000000000000042000000000000241614000000000000009999123100000010000000000000BRB1BLBDR007102
012021111102B1CS34      010BARCLAYS PLCDRN          R$  000000000578300000000057830000000005783000000000578300000000057830000000005747000000000578300001000000000000001740000000000010062420000000000000009999123100000010000000000000BRB1CSBDR000102
012021111102B1IL34      010BILIBILI INCDRN          R$  000000000921500000000093050000000009144000000000923500000000091710000000008765000000000941400102000000000000000739000000000006825010000000000000009999123100000010000000000000BRB1ILBDR002100
012021111102B1MR34      010BIOMARIN PHADRN          R$  000000002219100000000221910000000022109000000002219000000000221240000000000000000000000000000003000000000000002948000000000065417348000000000000009999123100000010000000000000BRB1MRBDR001100
012021111102B1NT34      010BIONTECH SE DRN          R$  000000001629900000000163040000000015477000000001581200000000159300000000015832000000001593000421000000000000030878000000000488272102000000000000009999123100000010000000000000BRB1NTBDR005100
012021111102B1PP34      010BP PLC      DRN ED       R$  000000000374700000000037500000000003704000000000372800000000037200000000003720000000000380000036000000000000002474000000000009224459000000000000009999123100000010000000000000BRB1PPBDR008105
012021111102B1SA34      010BANCO SANTANDRN          R$  000000000539500000000053950000000005260000000000531100000000052950000000000000000000000529500005000000000000000077000000000000409015000000000000009999123100000010000000000000BRB1SABDR004102
012021111102B1SX34      010BOSTON SCIENDRN          R$  000000002267100000000226710000000022671000000002267100000000226710000000017777000000000000000001000000000000000048000000000001088208000000000000009999123100000010000000000000BRB1SXBDR006100
012021111102B1TI34      010BRITISH AMERDRN          R$  000000000384400000000038440000000003764000000000378500000000037750000000003775000000000389000052000000000000003686000000000013952246000000000000009999123100000010000000000000BRB1TIBDR005104
012021111102B2YN34      010BEYOND MEAT DRN          R$  000000000225000000000022500000000002100000000000218400000000021860000000002135000000000231000053000000000000005060000000000011052188000000000000009999123100000010000000000000BRB2YNBDR003100
012021111102B3SA3       010B3          ON      NM   R$  000000000128500000000013210000000001283000000000131000000000013150000000001314000000000131564406000000000048066000000000062972212700000000000000009999123100000010000000000000BRB3SAACNOR6118
012021111102BAAX39      010MSCI ASIA JPDRN          R$  000000000473300000000047410000000004722000000000472900000000047320000000004715000000000476300151000000000000002483000000000011743202000000000000009999123100000010000000000000BRBAAXBDR009102
012021111102BABA34      010ALIBABAGR   DRN          R$  000000000325000000000032910000000003220000000000324400000000032910000000003237000000000329101137000000000000434399000000001409249840000000000000009999123100000010000000000000BRBABABDR005101
012021111102BACW39      010MSCI ACWI   DRN          R$  000000000607000000000060700000000005738000000000576100000000057700000000005744000000000577000233000000000000024693000000000142275348000000000000009999123100000010000000000000BRBACWBDR007102
012021111102BAER39      010US AEROSPACEDRN          R$  000000000293500000000029360000000002885000000000290800000000028930000000002808000000000356700007000000000000000141000000000000410146000000000000009999123100000010000000000000BRBAERBDR003105
012021111102BAHI3       010BAHEMA      ON      MA   R$  000000000140500000000014430000000001405000000000143300000000014430000000001405000000000144300004000000000000000400000000000000573300000000000000009999123100000010000000000000BRBAHIACNOR1073
012021111102BALM4       010BAUMER      PN           R$  000000000136800000000013680000000001368000000000136800000000013680000000001321000000000136800001000000000000000100000000000000136800000000000000009999123100000010000000000000BRBALMACNPR2052
012021111102BAUH4       010EXCELSIOR   PN           R$  000000000800100000000080010000000007908000000000798200000000079080000000007907000000000809700005000000000000000500000000000003991000000000000000009999123100000010000000000000BRBAUHACNPR3116
012021111102BAZA3       010AMAZONIA    ON           R$  000000000380000000000038000000000003800000000000380000000000038000000000003773000000000394400001000000000000000100000000000000380000000000000000009999123100000010000000000000BRBAZAACNOR0175
012021111102BBAS3       010BRASIL      ON      NM   R$  000000000311000000000031130000000003020000000000305000000000030200000000003020000000000302139949000000000021432800000000065383053200000000000000009999123100000010000000000000BRBBASACNOR3301
012021111102BBDC3       010BRADESCO    ON  EJ  N1   R$  000000000178000000000017820000000001755000000000176500000000017700000000001768000000000177013710000000000006700100000000011830405000000000000000009999123100000010000000000000BRBBDCACNOR1733
012021111102BBDC4       010BRADESCO    PN  EJ  N1   R$  000000000207400000000020860000000002034000000000205100000000020490000000002048000000000204961761000000000035700900000000073243303900000000000000009999123100000010000000000000BRBBDCACNPR8733
012021111102BBRK3       010BR BROKERS  ON      NM   R$  000000000015200000000001600000000000152000000000015600000000001570000000000155000000000015700876000000000001566500000000000244785500000000000000009999123100000010000000000000BRBBRKACNOR4114
012021111102BBSE3       010BBSEGURIDADEON      NM   R$  000000000233500000000023380000000002305000000000232300000000023290000000002328000000000232916771000000000004000500000000009293541700000000000000009999123100000010000000000000BRBBSEACNOR5119
012021111102BCHI39      010MSCI CHINA  DRN          R$  000000000477900000000047790000000004779000000000477900000000047790000000004671000000000485000001000000000000000002000000000000009558000000000000009999123100000010000000000000BRBCHIBDR001102
012021111102BCIR39      010FT NASDCYBERDRN          R$  000000000604400000000060440000000006044000000000604400000000060440000000000000000000000000000001000000000000000083000000000000501652000000000000009999123100000010000000000000BRBCIRBDR000100
012021111102BCSA34      010SANTANDER   DRN          R$  000000000199000000000020180000000001984000000000199100000000020000000000001987000000000200000029000000000000000246000000000000489924000000000000009999123100000010000000000000BRBCSABDR005104
012021111102BDVY39      010SELECT DIVIDDRN          R$  000000000660100000000066010000000006515000000000654900000000065530000000006460000000000655300012000000000000002623000000000017179293000000000000009999123100000010000000000000BRBDVYBDR007104
012021111102BEEF3       010MINERVA     ON  ED  NM   R$  000000000100900000000010250000000000950000000000098300000000009750000000000974000000000097524924000000000018596500000000018294145500000000000000009999123100000010000000000000BRBEEFACNOR6112
012021111102BEEM39      010MSCI EMGMARKDRN          R$  000000000467100000000046810000000004662000000000466200000000046810000000004500000000000467900004000000000000120355000000000561098265000000000000009999123100000010000000000000BRBEEMBDR006102
012021111102BEES3       010BANESTES    ON  EJ       R$  000000000048100000000004900000000000481000000000048300000000004810000000000481000000000048600071000000000000012200000000000005897500000000000000009999123100000010000000000000BRBEESACNOR9354
012021111102BEES4       010BANESTES    PN  EJ       R$  000000000058400000000005930000000000580000000000058400000000005800000000000581000000000058400016000000000000003100000000000001812800000000000000009999123100000010000000000000BRBEESACNPR6279
012021111102BEFA39      010MSCI EAFE   DRN          R$  000000000550300000000055030000000005471000000000547700000000054710000000005362000000000586500004000000000000000935000000000005121137000000000000009999123100000010000000000000BRBEFABDR008102
012021111102BEFV39      010MSCIEAFEVALUDRN          R$  000000000478200000000047820000000004761000000000476200000000047610000000004660000000000000000002000000000000000015000000000000071436000000000000009999123100000010000000000000BRBEFVBDR004101
012021111102BEGD39      010TRTMSCI EAFEDRN          R$  000000000552500000000055250000000005519000000000552200000000055190000000000000000000000600000002000000000000002330000000000012866260000000000000009999123100000010000000000000BRBEGDBDR000102
012021111102BEGU39      010TRUSTMSCI USDRN          R$  000000000572900000000057640000000005727000000000576200000000057640000000005660000000000576400006000000000000002885000000000016626025000000000000009999123100000010000000000000BRBEGUBDR004104
012021111102BERK34      010BERKSHIRE   DRN          R$  000000000781000000000078100000000007668000000000771400000000077300000000007730000000000775101010000000000000027511000000000212230770000000000000009999123100000010000000000000BRBERKBDR002101
012021111102BERU39      010BKR MS RUSS DRN          R$  000000000683900000000068390000000006807000000000681200000000068070000000000000000000000000000002000000000000000006000000000000040874000000000000009999123100000010000000000000BRBERUBDR001100
012021111102BEWA39      010MSCIAUSTRALIDRN          R$  000000000471400000000047140000000004605000000000466600000000046600000000004620000000000000000008000000000000000015000000000000069995000000000000009999123100000010000000000000BRBEWABDR003101
012021111102BEWC39      010MSCI CANADA DRN          R$  000000000535000000000053500000000005350000000000535000000000053500000000005300000000000535000002000000000000002742000000000014669700000000000000009999123100000010000000000000BRBEWCBDR009101
012021111102BEWG39      010MSCI GERMANYDRN          R$  000000000618600000000061860000000006135000000000615900000000061500000000006090000000000615000008000000000000000348000000000002143594000000000000009999123100000010000000000000BRBEWGBDR000102
012021111102BEWH39      010MSCIHONGKONGDRN          R$  000000000440600000000044060000000004400000000000440100000000044000000000004340000000000000000004000000000000000064000000000000281684000000000000009999123100000010000000000000BRBEWHBDR008102
012021111102BEWJ39      010MSCI JAPAN  DRN          R$  000000000470000000000047000000000004660000000000466900000000046600000000004660000000000483100005000000000000000055000000000000256800000000000000009999123100000010000000000000BRBEWJBDR004102
012021111102BEWL39      010MSCI SWITZERDRN          R$  000000000551600000000055510000000005516000000000554400000000055510000000005433000000000000000002000000000000000123000000000000681968000000000000009999123100000010000000000000BRBEWLBDR000101
012021111102BEWT39      010MSCI TAIWAN DRN          R$  000000000586400000000058640000000005864000000000586400000000058640000000005830000000000586400001000000000000000618000000000003623952000000000000009999123100000010000000000000BRBEWTBDR003101
012021111102BEWU39      010MSCI UK     DRN          R$  000000000608400000000060880000000006039000000000606700000000060700000000005980000000000607000012000000000000012776000000000077521804000000000000009999123100000010000000000000BRBEWUBDR001102
012021111102BEWY39      010MSCISOUTHKORDRN          R$  000000000532800000000053280000000005315000000000532700000000053230000000005280000000000577500004000000000000000167000000000000889729000000000000009999123100000010000000000000BRBEWYBDR003101
012021111102BEZU39      010MSCIEUROZONEDRN          R$  000000000690800000000069080000000006853000000000685300000000068530000000006853000000000000000111000000000000015631000000000107128346000000000000009999123100000010000000000000BRBEZUBDR004102
012021111102BFBI39      010FT NYSE BIOTDRN          R$  000000000433600000000043570000000004336000000000434200000000043570000000004018000000000000000002000000000000000010000000000000043423000000000000009999123100000010000000000000BRBFBIBDR007100
012021111102BFDN39      010FT DJ INTERNDRN          R$  000000000440800000000044080000000004408000000000440800000000044080000000004118000000000000000001000000000000000005000000000000022040000000000000009999123100000010000000000000BRBFDNBDR003100
012021111102BFXI39      010CHINALARGECADRN          R$  000000000438100000000043810000000004381000000000438100000000043810000000000000000000000000000001000000000000000001000000000000004381000000000000009999123100000010000000000000BRBFXIBDR001101
012021111102BGIP4       010BANESE      PN           R$  000000000224000000000023000000000002240000000000227000000000023000000000002232000000000230700002000000000000000200000000000000454000000000000000009999123100000010000000000000BRBGIPACNPR8201
012021111102BGRT39      010GLOBAL REIT DRN          R$  000000000531100000000053500000000005260000000000526200000000053500000000005260000000000000000008000000000000001130000000000005946984000000000000009999123100000010000000000000BRBGRTBDR008102
012021111102BGWH39      010COREDIVGROWTDRN          R$  000000000577000000000058850000000005770000000000584900000000058500000000000000000000000585000004000000000000005247000000000030693788000000000000009999123100000010000000000000BRBGWHBDR003102
012021111102BHPG34      010BHP GROUP   DRN          R$  000000002955100000000295510000000029551000000002955100000000295510000000029551000000003600000002000000000000000015000000000000443265000000000000009999123100000010000000000000BRBHPGBDR007104
012021111102BIAU39      010GOLD TRUST  DRN          R$  000000000484500000000048450000000004773000000000479100000000047970000000004775000000000482000151000000000000003387000000000016229930000000000000009999123100000010000000000000BRBIAUBDR008102
012021111102BIBB39      010ICE BIOTECH DRN          R$  000000000560800000000056120000000005501000000000554200000000055400000000005308000000000595900128000000000000000615000000000003408715000000000000009999123100000010000000000000BRBIBBBDR006104
012021111102BIDI3       010BANCO INTER ON      N2   R$  000000000149800000000015930000000001454000000000153000000000015230000000001522000000000153109038000000000001895400000000002901285900000000000000009999123100000010000000000000BRBIDIACNOR3110
012021111102BIDI4       010BANCO INTER PN      N2   R$  000000000150700000000016450000000001497000000000157600000000015790000000001578000000000157929173000000000013204000000000020820684200000000000000009999123100000010000000000000BRBIDIACNPR0114
012021111102BIDI11      010BANCO INTER UNT     N2   R$  000000000452500000000048900000000004440000000000469800000000046460000000004645000000000466430463000000000007804700000000036672355000000000000000009999123100000010000000000000BRBIDICDAXX3109
012021111102BIDU34      010BAIDU INC   DRN          R$  000000008916800000000907920000000089168000000008977300000000907920000000089168000000009079200010000000000000000184000000000016518360000000000000009999123100000010000000000000BRBIDUBDR002100
012021111102BIEF39      010COREMSCIEAFEDRN          R$  000000000550000000000055000000000005200000000000521800000000052120000000005184000000000521200008000000000000000923000000000004816662000000000000009999123100000010000000000000BRBIEFBDR001102
012021111102BIEM39      010COREMSCI EMKDRN          R$  000000000570000000000057610000000005700000000000574200000000057350000000005735000000000615000022000000000000000764000000000004387586000000000000009999123100000010000000000000BRBIEMBDR007102
012021111102BIEU39      010COREMSCI EURDRN          R$  000000000537800000000053780000000005329000000000534500000000053600000000005345000000000555100028000000000000511489000000002733955774000000000000009999123100000010000000000000BRBIEUBDR000102
012021111102BIEV39      010EUROPE ETF  DRN          R$  000000000599500000000059970000000005995000000000599600000000059970000000004895000000000000000002000000000000000004000000000000023986000000000000009999123100000010000000000000BRBIEVBDR008101
012021111102BIGF39      010GLOBAL INFRADRN          R$  000000000646600000000064660000000006429000000000642900000000064290000000006420000000000000000003000000000000000803000000000005162526000000000000009999123100000010000000000000BRBIGFBDR006102
012021111102BIHI39      010USMEDICDEVICDRN          R$  000000000102000000000011710000000000998000000000100100000000010010000000000985000000000100100011000000000000108448000000000108557746000000000000009999123100000010000000000000BRBIHIBDR008103
012021111102BIIB34      010BIOGEN      DRN          R$  000000002407000000000240700000000024070000000002407000000000240700000000020777000000002407000001000000000000000405000000000009748350000000000000009999123100000010000000000000BRBIIBBDR001101
012021111102BIJH39      010CORE MIDCAP DRN          R$  000000000783100000000078310000000007831000000000783100000000078310000000007216000000000783100001000000000000001314000000000010289934000000000000009999123100000010000000000000BRBIJHBDR006104
012021111102BIJR39      010CORESMALLCAPDRN          R$  000000000818600000000081860000000008080000000000810800000000081190000000008080000000000811900017000000000000001221000000000009900618000000000000009999123100000010000000000000BRBIJRBDR005104
012021111102BIOM3       010BIOMM       ON      MA   R$  000000000142000000000014200000000001410000000000141600000000014100000000001410000000000142500019000000000000003300000000000004675300000000000000009999123100000010000000000000BRBIOMACNOR2108
012021111102BITO39      010CORE SP TOTADRN          R$  000000000584200000000058420000000005745000000000577000000000057710000000005594000000000577100011000000000000002308000000000013318041000000000000009999123100000010000000000000BRBITOBDR001104
012021111102BIVB39      010CORE SP 500 DRN          R$  000000000638900000000063890000000006283000000000631500000000063190000000006286000000000631900055000000000000004352000000000027485702000000000000009999123100000010000000000000BRBIVBBDR004104
012021111102BIVE39      010SP500 VALUE DRN          R$  000000000564900000000056560000000005572000000000557400000000055720000000005309000000000557200004000000000000003501000000000019514806000000000000009999123100000010000000000000BRBIVEBDR008102
012021111102BIVW39      010SP500GROWTH DRN          R$  000000000559400000000056200000000005500000000000552600000000055140000000005434000000000551400007000000000000001507000000000008329052000000000000009999123100000010000000000000BRBIVWBDR000102
012021111102BIWF39      010RUSSEL1000GRDRN          R$  000000000653100000000065310000000006474000000000647400000000064740000000006474000000000000000002000000000000000487000000000003152952000000000000009999123100000010000000000000BRBIWFBDR003102
012021111102BIWM39      010RUSSELL 2000DRN          R$  000000000650100000000065010000000006455000000000646400000000064550000000006455000000000000000005000000000000091608000000000592220879000000000000009999123100000010000000000000BRBIWMBDR009104
012021111102BIXJ39      010GLOBALHEALTHDRN          R$  000000000590000000000059000000000005874000000000589400000000058840000000005785000000000632700007000000000000001407000000000008293828000000000000009999123100000010000000000000BRBIXJBDR003102
012021111102BIXN39      010GLOBAL TECH DRN          R$  000000000117700000000013400000000001110000000000112600000000011110000000001100000000000120000021000000000000002661000000000002998255000000000000009999123100000010000000000000BRBIXNBDR005103
012021111102BIYE39      010BKR US ENER DRN          R$  000000000581500000000058150000000005732000000000575900000000057500000000005677000000000000000004000000000000000360000000000002073306000000000000009999123100000010000000000000BRBIYEBDR002100
012021111102BIYF39      010US FINANCIALDRN          R$  000000000324600000000032460000000003193000000000321000000000032150000000003193000000000330000012000000000000001273000000000004086553000000000000009999123100000010000000000000BRBIYFBDR009105
012021111102BIYW39      010US TECHNOLOGDRN          R$  000000000174100000000017470000000001736000000000174200000000017420000000001688000000000185000115000000000000001780000000000003101615000000000000009999123100000010000000000000BRBIYWBDR004105
012021111102BKBR3       010BK BRASIL   ON      NM   R$  000000000086500000000008800000000000851000000000086200000000008700000000000869000000000087010321000000000004733400000000004081277200000000000000009999123100000010000000000000BRBKBRACNOR4103
012021111102BKNG34      010BOOKING     DRN          R$  000000000811300000000081130000000007650000000000778000000000076900000000007650000000000769000987000000000000088359000000000687440351000000000000009999123100000010000000000000BRBKNGBDR006101
012021111102BLAK34      010BLACKROCK   DRN          R$  000000008790400000000879040000000086305000000008665500000000869440000000084051000000008790000009000000000000000079000000000006845773000000000000009999123100000010000000000000BRBLAKBDR003122
012021111102BLAU3       010BLAU        ON      NM   R$  000000000381600000000039200000000003816000000000388100000000038590000000003859000000000387402191000000000000303400000000001177670600000000000000009999123100000010000000000000BRBLAUACNOR8102
012021111102BMEB3       010MERC BRASIL ON      N1   R$  000000000203000000000020830000000002030000000000203800000000020830000000002030000000000214500002000000000000000600000000000001223300000000000000009999123100000010000000000000BRBMEBACNOR8198
012021111102BMEB4       010MERC BRASIL PN      N1   R$  000000000176100000000018250000000001761000000000179900000000018030000000001780000000000180300009000000000000001800000000000003239400000000000000009999123100000010000000000000BRBMEBACNPR5203
012021111102BMGB4       010BANCO BMG   PN      N1   R$  000000000033900000000003420000000000333000000000033700000000003330000000000333000000000033702521000000000001121200000000000377883400000000000000009999123100000010000000000000BRBMGBACNPR0102
012021111102BMIN4       010MERC INVEST PN           R$  000000000179000000000017900000000001760000000000178000000000017600000000001760000000000182900002000000000000000300000000000000534000000000000000009999123100000010000000000000BRBMINACNPR1173
012021111102BMKS3       010BIC MONARK  ON           R$  000000002307400000000230740000000022820000000002297200000000228200000000022724000000002307400003000000000000000004000000000000091890000000000000009999123100000010000000000000BRBMKSACNOR9163
012021111102BMOB3       010BEMOBI TECH ON      NM   R$  000000000148000000000015200000000001462000000000149400000000015040000000001500000000000150404069000000000001057900000000001581538300000000000000009999123100000010000000000000BRBMOBACNOR7100
012021111102BMTU39      010MSCIUSAMOM FDRN          R$  000000000520200000000052020000000005097000000000509700000000050970000000005097000000000620000012000000000000017582000000000089627968000000000000009999123100000010000000000000BRBMTUBDR000102
012021111102BMYB34      010BRISTOLMYERSDRN          R$  000000003204300000000321000000000032043000000003204700000000321000000000031000000000003743800002000000000000000048000000000001538292000000000000009999123100000010000000000000BRBMYBBDR000132
012021111102BNBR3       010NORD BRASIL ON  EDJ      R$  000000000681000000000068100000000006810000000000681000000000068100000000006810000000000734000001000000000000000300000000000002043000000000000000009999123100000010000000000000BRBNBRACNOR8202
012021111102BNDA39      010MSCI INDIA  DRN          R$  000000000683700000000068370000000006790000000000680600000000068030000000006734000000000680300007000000000000000599000000000004077103000000000000009999123100000010000000000000BRBNDABDR004102
012021111102BOAC34      010BANK AMERICADRN          R$  000000000651700000000065170000000006381000000000641800000000064110000000006411000000000655600236000000000000014040000000000090121909000000000000009999123100000010000000000000BRBOACBDR004145
012021111102BOAS3       010BOA VISTA   ON      NM   R$  000000000084200000000008700000000000829000000000085100000000008440000000000840000000000084502058000000000000468900000000000399114800000000000000009999123100000010000000000000BRBOASACNOR6101
012021111102BOBR4       010BOMBRIL     PN           R$  000000000017900000000001790000000000177000000000017700000000001780000000000178000000000017900075000000000000025700000000000004573200000000000000009999123100000010000000000000BRBOBRACNPR3128
012021111102BONY34      010BNY MELLON  DRN          R$  000000003260000000000326550000000032600000000003264900000000326550000000000000000000003287500003000000000000000100000000000003264950000000000000009999123100000010000000000000BRBONYBDR001125
012021111102BOXP34      010BOSTON PROP DRN          R$  000000000633000000000063860000000006330000000000634700000000063860000000006300000000000691500003000000000000000006000000000000038084000000000000009999123100000010000000000000BRBOXPBDR008125
012021111102BPAC3       010BTGP BANCO  ON      N2   R$  000000000153400000000015810000000001534000000000155900000000015430000000001537000000000159800055000000000000008300000000000012941200000000000000009999123100000010000000000000BRBPACACNOR7125
012021111102BPAC5       010BTGP BANCO  PNA     N2   R$  000000000054800000000005490000000000534000000000054300000000005340000000000534000000000054900038000000000000014300000000000007775900000000000000009999123100000010000000000000BRBPACACNPA0125
012021111102BPAC11      010BTGP BANCO  UNT     N2   R$  000000000240700000000024770000000002379000000000242100000000023970000000002396000000000239729867000000000013153500000000031852835000000000000000009999123100000010000000000000BRBPACUNT006110
012021111102BPAN4       010BANCO PAN   PN      N1   R$  000000000126400000000013850000000001263000000000134200000000013510000000001346000000000135117846000000000009189100000000012340676600000000000000009999123100000010000000000000BRBPANACNPR1111
012021111102BQTC39      010FT NASD100TCDRN          R$  000000000638000000000063800000000006374000000000637500000000063740000000000000000000000000000002000000000000000007000000000000044630000000000000009999123100000010000000000000BRBQTCBDR009100
012021111102BQUA39      010MSCIUSQUAL FDRN          R$  000000000520600000000052060000000005206000000000520600000000052060000000005043000000000520600001000000000000001255000000000006533530000000000000009999123100000010000000000000BRBQUABDR001102
012021111102BRAP3       010BRADESPAR   ON      N1   R$  000000000443600000000045680000000004436000000000450200000000045030000000004488000000000450401465000000000000269100000000001211657100000000000000009999123100000010000000000000BRBRAPACNOR5140
012021111102BRAP4       010BRADESPAR   PN      N1   R$  000000000473000000000048630000000004730000000000479500000000048350000000004834000000000483921539000000000005636000000000027025222700000000000000009999123100000010000000000000BRBRAPACNPR2140
012021111102BRBI11      010BR PARTNERS UNT     N2   R$  000000000173900000000019960000000001739000000000187800000000018600000000001826000000000186001179000000000000191400000000000359524100000000000000009999123100000010000000000000BRBRBICDAM10100
012021111102BRFS3       010BRF SA      ON      NM   R$  000000000230100000000023740000000002202000000000230100000000022900000000002289000000000229031123000000000011065200000000025466512200000000000000009999123100000010000000000000BRBRFSACNOR8120
012021111102BRGE3       010ALFA CONSORCON           R$  000000000083900000000008390000000000800000000000082600000000008000000000000761000000000080000003000000000000000300000000000000247800000000000000009999123100000010000000000000BRBRGEACNOR6203
012021111102BRGE12      010ALFA CONSORCPNF          R$  000000000069400000000006940000000000694000000000069400000000006940000000000625000000000069400001000000000000000100000000000000069400000000000000009999123100000010000000000000BRBRGEACNPF8097
012021111102BRIT3       010BRISANET    ON      NM   R$  000000000070700000000007310000000000700000000000072000000000007240000000000723000000000072501332000000000000257800000000000185709400000000000000009999123100000010000000000000BRBRITACNOR0100
012021111102BRIV3       010ALFA INVEST ON           R$  000000000086000000000009360000000000860000000000088200000000009360000000000860000000000092800005000000000000000600000000000000529400000000000000009999123100000010000000000000BRBRIVACNOR6207
012021111102BRKM3       010BRASKEM     ON      N1   R$  000000000509500000000050990000000004771000000000491100000000047710000000004770000000000485000268000000000000049600000000000243602000000000000000009999123100000010000000000000BRBRKMACNOR1117
012021111102BRKM5       010BRASKEM     PNA     N1   R$  000000000505200000000052100000000004790000000000494000000000048150000000004815000000000481625858000000000006016800000000029728239200000000000000009999123100000010000000000000BRBRKMACNPA4118
012021111102BRKM6       010BRASKEM     PNB     N1   R$  000000000360000000000036000000000003600000000000360000000000036000000000002501000000000365000001000000000000000100000000000000360000000000000000009999123100000010000000000000BRBRKMACNPB2113
012021111102BRML3       010BR MALLS PARON      NM   R$  000000000081500000000008520000000000815000000000083500000000008270000000000827000000000082828537000000000019197900000000016041866000000000000000009999123100000010000000000000BRBRMLACNOR9116
012021111102BRPR3       010BR PROPERT  ON      NM   R$  000000000078600000000008110000000000781000000000079600000000007810000000000781000000000078709087000000000002758400000000002195721700000000000000009999123100000010000000000000BRBRPRACNOR9121
012021111102BRSR3       010BANRISUL    ON      N1   R$  000000000129800000000012980000000001228000000000125000000000012370000000001237000000000124800109000000000000022900000000000028647100000000000000009999123100000010000000000000BRBRSRACNOR3175
012021111102BRSR6       010BANRISUL    PNB     N1   R$  000000000117000000000011720000000001092000000000111000000000010920000000001092000000000109515330000000000007247200000000008046534600000000000000009999123100000010000000000000BRBRSRACNPB4178
012021111102BSLI3       010BRB BANCO   ON           R$  000000000260000000000026010000000002600000000000260000000000026010000000002600000000000380000004000000000000000400000000000001040100000000000000009999123100000010000000000000BRBSLIACNOR5183
012021111102BSLI4       010BRB BANCO   PN           R$  000000000164700000000016470000000001647000000000164700000000016470000000001524000000000164700001000000000000000100000000000000164700000000000000009999123100000010000000000000BRBSLIACNPR2183
012021111102BSLV39      010SILVER TRUSTDRN          R$  000000000418600000000042240000000004178000000000420200000000042120000000004198000000000421900046000000000000014311000000000060138984000000000000009999123100000010000000000000BRBSLVBDR002100
012021111102BSOX39      010BKR SEMICONDDRN          R$  000000000701500000000070150000000007015000000000701500000000070150000000005000000000000000000002000000000000000150000000000001052250000000000000009999123100000010000000000000BRBSOXBDR002100
012021111102BURT39      010BKR MS WLD  DRN          R$  000000000484000000000048400000000004838000000000483800000000048380000000000000000000000000000002000000000000000111000000000000537020000000000000009999123100000010000000000000BRBURTBDR009100
012021111102BUSM39      010MSCI US MVOLDRN          R$  000000000526500000000052680000000005265000000000526700000000052680000000005161000000000526800002000000000000019571000000000103099968000000000000009999123100000010000000000000BRBUSMBDR002104
012021111102BUSR39      010CORE US REITDRN          R$  000000000575000000000057800000000005718000000000577500000000057600000000005709000000000000000011000000000000012896000000000074486794000000000000009999123100000010000000000000BRBUSRBDR001102
012021111102BVLU39      010MSCIUSVALUEFDRN          R$  000000000578500000000058150000000005785000000000581400000000058150000000004895000000000581500002000000000000003358000000000019524220000000000000009999123100000010000000000000BRBVLUBDR008102
012021111102BXTC39      010EXPON TECHNLDRN          R$  000000000618600000000061860000000006012000000000603200000000060150000000005969000000000000000005000000000000000108000000000000651486000000000000009999123100000010000000000000BRBXTCBDR005101
012021111102C1AH34      010CARDINAL HEADRN          R$  000000002683900000000268390000000026839000000002683900000000268390000000025000000000000000000001000000000000000004000000000000107356000000000000009999123100000010000000000000BRC1AHBDR006108
012021111102C1BS34      010VIACOMCBS   DRN          R$  000000001913300000000192500000000018880000000001909500000000191900000000000000000000002011200147000000000000001153000000000022016945000000000000009999123100000010000000000000BRC1BSBDR001108
012021111102C1CI34      010CROWN CASTLEDRN          R$  000000002427600000000243500000000024225000000002426300000000242630000000000000000000000000000004000000000000008154000000000197842260000000000000009999123100000010000000000000BRC1CIBDR000107
012021111102C1CL34      010CARNIVAL CORDRN          R$  000000001274000000000127400000000012429000000001248500000000124440000000012050000000001258600100000000000000000806000000000010063355000000000000009999123100000010000000000000BRC1CLBDR004101
012021111102C1DN34      010CADENCE DESIDRN          R$  000000004820000000000482000000000048200000000004820000000000482000000000000000000000005250000001000000000000000065000000000003133000000000000000009999123100000010000000000000BRC1DNBDR008100
012021111102C1GP34      010COSTAR GROUPDRN          R$  000000000044400000000004440000000000439000000000044100000000004390000000000420000000000000000004000000000000000312000000000000137890000000000000009999123100000010000000000000BRC1GPBDR006101
012021111102C1HI34      010CHINA PETROLDRN          R$  000000000441200000000044600000000004412000000000441700000000044600000000004325000000000499600004000000000000000474000000000002094000000000000000009999123100000010000000000000BRC1HIBDR009102
012021111102C1MG34      010CHIPOTLE MEXDRN          R$  000000004919900000000491990000000049199000000004919900000000491990000000025324000000000000000001000000000000000022000000000001082378000000000000009999123100000010000000000000BRC1MGBDR003100
012021111102C1NC34      010CENTENE CORPDRN          R$  000000004079700000000407970000000040797000000004079700000000407970000000000000000000000000000002000000000000000101000000000004120497000000000000009999123100000010000000000000BRC1NCBDR000100
012021111102C1NS34      010CELANESE CORDRN          R$  000000004621200000000462120000000046212000000004621200000000462120000000000000000000000000000001000000000000000016000000000000739392000000000000009999123100000010000000000000BRC1NSBDR006108
012021111102C1PR34      010COPART INC  DRN          R$  000000004098000000000409800000000040980000000004098000000000409800000000000000000000004540000001000000000000000070000000000002868600000000000000009999123100000010000000000000BRC1PRBDR003100
012021111102C1SU34      010CREDIT SUISSDRN          R$  000000000276900000000027690000000002706000000000271700000000027450000000002704000000000274000009000000000000000344000000000000934817000000000000009999123100000010000000000000BRC1SUBDR001102
012021111102C1TX34      010CITRIX SYSTEDRN          R$  000000002370000000000238500000000023700000000002376300000000237840000000023000000000002900000004000000000000000013000000000000308923000000000000009999123100000010000000000000BRC1TXBDR003107
012021111102C2OI34      010COINBASEGLOBDRN          R$  000000000716100000000073510000000007159000000000729800000000073510000000006985000000000728500027000000000000008252000000000060229057000000000000009999123100000010000000000000BRC2OIBDR003100
012021111102C2ON34      010CYRUSONE INCDRN          R$  000000000449000000000044900000000004402000000000440300000000044020000000004330000000000000000002000000000000000084000000000000369856000000000000009999123100000010000000000000BRC2ONBDR003102
012021111102CAMB3       010CAMBUCI     ON           R$  000000000049100000000004910000000000472000000000048100000000004820000000000482000000000048500092000000000000021000000000000010111300000000000000009999123100000010000000000000BRCAMBACNOR4119
012021111102CAML3       010CAMIL       ON      NM   R$  000000000103700000000010490000000001029000000000103800000000010360000000001033000000000103604948000000000001813500000000001883165800000000000000009999123100000010000000000000BRCAMLACNOR3116
012021111102CARD3       010CSU CARDSYSTON      NM   R$  000000000164800000000017590000000001644000000000171400000000017320000000001702000000000173202670000000000000439700000000000753957500000000000000009999123100000010000000000000BRCARDACNOR9124
012021111102CASH3       010MELIUZ      ON      NM   R$  000000000039700000000004320000000000390000000000041500000000004270000000000426000000000042733915000000000048432300000000020138554700000000000000009999123100000010000000000000BRCASHACNOR8102
012021111102CATP34      010CATERPILLAR DRN          R$  000000000708700000000071190000000007021000000000704500000000070310000000007020000000000730000035000000000000003396000000000023926922000000000000009999123100000010000000000000BRCATPBDR003142
012021111102CBAV3       010CBA         ON      NM   R$  000000000126500000000013710000000001265000000000131800000000013710000000001367000000000137106487000000000002455200000000003236486900000000000000009999123100000010000000000000BRCBAVACNOR5100
012021111102CCRO3       010CCR SA      ON      NM   R$  000000000118100000000012080000000001176000000000119500000000011880000000001188000000000118920691000000000006675800000000007983046300000000000000009999123100000010000000000000BRCCROACNOR2139
012021111102CEAB3       010CEA MODAS   ON      NM   R$  000000000079200000000008110000000000757000000000079200000000007980000000000797000000000079814697000000000004987000000000003950010700000000000000009999123100000010000000000000BRCEABACNOR1101
012021111102CEBR3       010CEB         ON           R$  000000000177600000000017990000000001750000000000176800000000017680000000001766000000000179800026000000000000004000000000000007075000000000000000009999123100000010000000000000BRCEBRACNOR5121
012021111102CEBR5       010CEB         PNA          R$  000000000176100000000018740000000001750000000000178600000000018000000000001800000000000185000011000000000000001700000000000003036400000000000000009999123100000010000000000000BRCEBRACNPA8120
012021111102CEBR6       010CEB         PNB          R$  000000000179900000000018050000000001798000000000180300000000018000000000001776000000000180000014000000000000003400000000000006132600000000000000009999123100000010000000000000BRCEBRACNPB6120
012021111102CEDO3       010CEDRO       ON      N1   R$  000000000072800000000007500000000000716000000000073800000000007480000000000715000000000074100020000000000000003800000000000002804400000000000000009999123100000010000000000000BRCEDOACNOR8096
012021111102CEDO4       010CEDRO       PN      N1   R$  000000000060500000000006250000000000600000000000061100000000006250000000000595000000000062500023000000000000009100000000000005562500000000000000009999123100000010000000000000BRCEDOACNPR5128
012021111102CESP3       010CESP        ON      N1   R$  000000000240900000000024550000000002400000000000241000000000024000000000002400000000000241200027000000000000005900000000000014220500000000000000009999123100000010000000000000BRCESPACNOR3171
012021111102CESP6       010CESP        PNB     N1   R$  000000000267400000000026740000000002623000000000264100000000026320000000002632000000000263708129000000000001777300000000004694849200000000000000009999123100000010000000000000BRCESPACNPB4130
012021111102CGAS5       010COMGAS      PNA          R$  000000001449500000000146470000000014389000000001452500000000146470000000014500000000001465000013000000000000001400000000000020335800000000000000009999123100000010000000000000BRCGASACNPA3150
012021111102CGRA3       010GRAZZIOTIN  ON           R$  000000000440000000000044900000000004400000000000440900000000044900000000004460000000000459900009000000000000002200000000000009701000000000000000009999123100000010000000000000BRCGRAACNOR2073
012021111102CGRA4       010GRAZZIOTIN  PN           R$  000000000442400000000045430000000004360000000000448000000000044810000000004480000000000454300030000000000000007400000000000033153800000000000000009999123100000010000000000000BRCGRAACNPR9073
012021111102CHCM34      010CHARTER COMMDRN          R$  000000000630600000000063350000000006287000000000628800000000062880000000005988000000000628800017000000000000010199000000000064137664000000000000009999123100000010000000000000BRCHCMBDR001101
012021111102CHME34      010CME GROUP   DRN          R$  000000002999900000000299990000000029999000000002999900000000299990000000000000000000000000000001000000000000000002000000000000059998000000000000009999123100000010000000000000BRCHMEBDR007111
012021111102CHVX34      010CHEVRON     DRN          R$  000000000624000000000062460000000006145000000000617500000000061450000000006145000000000618900529000000000000009862000000000060904945000000000000009999123100000010000000000000BRCHVXBDR008143
012021111102CIEL3       010CIELO       ON  EJ  NM   R$  000000000024600000000002490000000000240000000000024600000000002450000000000245000000000024611063000000000027120900000000006671761300000000000000009999123100000010000000000000BRCIELACNOR3147
012021111102CLSA3       010CLEARSALE   ON      NM   R$  000000000186000000000020600000000001860000000000193300000000020040000000001989000000000200602270000000000001146600000000002216679000000000000000009999123100000010000000000000BRCLSAACNOR0100
012021111102CLSC3       010CELESC      ON      N2   R$  000000000622000000000062200000000006220000000000622000000000062200000000006051000000000720000001000000000000000200000000000001244000000000000000009999123100000010000000000000BRCLSCACNOR6138
012021111102CLSC4       010CELESC      PN      N2   R$  000000000700000000000071400000000006976000000000706600000000071000000000007000000000000712300019000000000000002700000000000019079700000000000000009999123100000010000000000000BRCLSCACNPR3117
012021111102CMCS34      010COMCAST     DRN          R$  000000000588600000000058860000000005796000000000582600000000057960000000005796000000000582900201000000000000025612000000000149218661000000000000009999123100000010000000000000BRCMCSBDR008141
012021111102CMIG3       010CEMIG       ON      N1   R$  000000000175700000000017910000000001757000000000177300000000017670000000001766000000000177201159000000000000261400000000000463631200000000000000009999123100000010000000000000BRCMIGACNOR6227
012021111102CMIG4       010CEMIG       PN      N1   R$  000000000138900000000013990000000001373000000000138700000000013950000000001394000000000139511994000000000006031100000000008366315700000000000000009999123100000010000000000000BRCMIGACNPR3228
012021111102CMIN3       010CSNMINERACAOON      N2   R$  000000000059100000000006290000000000586000000000061300000000006140000000000614000000000061616364000000000016427900000000010080572200000000000000009999123100000010000000000000BRCMINACNOR2102
012021111102COCA34      010COCA COLA   DRN          R$  000000000521000000000052100000000005092000000000512700000000051300000000005130000000000514001492000000000000023775000000000121911791000000000000009999123100000010000000000000BRCOCABDR002141
012021111102COCE5       010COELCE      PNA EJ       R$  000000000482500000000050260000000004825000000000497300000000050000000000004950000000000500900068000000000000009500000000000047249600000000000000009999123100000010000000000000BRCOCEACNPA3142
012021111102COGN3       010COGNA ON    ON      NM   R$  000000000027800000000002920000000000277000000000028300000000002770000000000277000000000027817724000000000041459900000000011759324300000000000000009999123100000010000000000000BRCOGNACNOR2102
012021111102COLG34      010COLGATE     DRN          R$  000000000610200000000061020000000005994000000000601200000000059940000000006007000000000629900006000000000000000067000000000000402808000000000000009999123100000010000000000000BRCOLGBDR000143
012021111102COPH34      010COPHILLIPS  DRN          R$  000000000995800000000099890000000009796000000000989300000000097980000000009750000000001091000197000000000000005645000000000055847698000000000000009999123100000010000000000000BRCOPHBDR009140
012021111102COTY34      010COTY INC    DRN          R$  000000000288000000000029130000000002877000000000288500000000029130000000002490000000000295000005000000000000000016000000000000046170000000000000009999123100000010000000000000BRCOTYBDR006116
012021111102COWC34      010COSTCO      DRN          R$  000000000699900000000069990000000006838000000000689200000000069300000000006885000000000720000301000000000000029597000000000204011937000000000000009999123100000010000000000000BRCOWCBDR006126
012021111102CPFE3       010CPFL ENERGIAON      NM   R$  000000000280400000000028300000000002777000000000281400000000028040000000002804000000000280814074000000000002926100000000008235156400000000000000009999123100000010000000000000BRCPFEACNOR0132
012021111102CPLE3       010COPEL       ON      N1   R$  000000000056700000000005690000000000557000000000056300000000005590000000000559000000000056003261000000000002147300000000001209069400000000000000009999123100000010000000000000BRCPLEACNOR8144
012021111102CPLE5       010COPEL       PNA     N1   R$  000000000349900000000034990000000003499000000000349900000000034990000000001000000000000484500001000000000000000100000000000000349900000000000000009999123100000010000000000000BRCPLEACNPA1141
012021111102CPLE6       010COPEL       PNB     N1   R$  000000000064200000000006440000000000630000000000063600000000006300000000000630000000000063125459000000000014145900000000009002252300000000000000009999123100000010000000000000BRCPLEACNPB9141
012021111102CPLE11      010COPEL       UNT     N1   R$  000000000311700000000031240000000003064000000000309100000000030760000000003060000000000307801899000000000000585500000000001810121800000000000000009999123100000010000000000000BRCPLECDAM13102
012021111102CRDA34      010CREDIT ACCEPDRN          R$  000000003648200000000365550000000036482000000003650200000000365550000000017500000000000000000003000000000000000180000000000006570410000000000000009999123100000010000000000000BRCRDABDR003100
012021111102CRDE3       010CR2         ON           R$  000000000205100000000020510000000001993000000000203300000000019930000000001992000000000214000009000000000000001000000000000002033400000000000000009999123100000010000000000000BRCRDEACNOR1112
012021111102CRFB3       010CARREFOUR BRON      NM   R$  000000000170000000000017030000000001675000000000169100000000016820000000001682000000000168411467000000000002759900000000004668223400000000000000009999123100000010000000000000BRCRFBACNOR2109
012021111102CRHP34      010CRH PLC     DRN          R$  000000002730000000000273000000000027300000000002730000000000273000000000000000000000003290100001000000000000000001000000000000027300000000000000009999123100000010000000000000BRCRHPBDR002104
012021111102CRIN34      010CARTERS INC DRN          R$  000000002937000000000293700000000029370000000002937000000000293700000000000000000000000000000001000000000000000001000000000000029370000000000000009999123100000010000000000000BRCRINBDR005104
012021111102CRIP34      010CTRIPCOM    DRN          R$  000000001664400000000167710000000016644000000001670100000000167710000000015700000000001677100004000000000000000014000000000000233818000000000000009999123100000010000000000000BRCRIPBDR000100
012021111102CRPG5       010CRISTAL     PNA          R$  000000000753300000000086000000000007521000000000815700000000084740000000008341000000000847400397000000000000062700000000000511447800000000000000009999123100000010000000000000BRCRPGACNPA3113
012021111102CSAB4       010SEG AL BAHIAPN           R$  000000000402100000000042000000000004021000000000411000000000042000000000003000000000000439900002000000000000000400000000000001644200000000000000009999123100000010000000000000BRCSABACNPR8059
012021111102CSAN3       010COSAN       ON      NM   R$  000000000215800000000022410000000002147000000000220700000000021860000000002185000000000218620966000000000005386400000000011889429100000000000000009999123100000010000000000000BRCSANACNOR6121
012021111102CSCO34      010CISCO       DRN          R$  000000000627200000000062720000000006120000000000615400000000061600000000006100000000000616000204000000000000002260000000000013908668000000000000009999123100000010000000000000BRCSCOBDR004144
012021111102CSED3       010CRUZEIRO EDUON      NM   R$  000000000066000000000006850000000000642000000000066900000000006610000000000660000000000067404554000000000000733100000000000490928000000000000000009999123100000010000000000000BRCSEDACNOR9101
012021111102CSMG3       010COPASA      ON      NM   R$  000000000132500000000013600000000001320000000000134400000000013330000000001333000000000133408226000000000002230400000000002997668200000000000000009999123100000010000000000000BRCSMGACNOR5163
012021111102CSNA3       010SID NACIONALON           R$  000000000220000000000022900000000002177000000000225700000000022750000000002274000000000227530281000000000020316700000000045873002100000000000000009999123100000010000000000000BRCSNAACNOR6254
012021111102CTGP34      010CITIGROUP   DRN          R$  000000000619700000000062220000000006193000000000620100000000061930000000006193000000000635000039000000000000005152000000000031948196000000000000009999123100000010000000000000BRCTGPBDR000144
012021111102CTNM4       010COTEMINAS   PN           R$  000000000041500000000004200000000000402000000000040500000000004020000000000402000000000041000050000000000000029600000000000011998000000000000000009999123100000010000000000000BRCTNMACNPR6129
012021111102CTSA3       010SANTANENSE  ON           R$  000000000021300000000002170000000000211000000000021300000000002130000000000213000000000021400055000000000000012400000000000002650900000000000000009999123100000010000000000000BRCTSAACNOR3060
012021111102CTSA4       010SANTANENSE  PN           R$  000000000015500000000001590000000000155000000000015600000000001570000000000156000000000015800062000000000000026500000000000004156300000000000000009999123100000010000000000000BRCTSAACNPR0060
012021111102CTSH34      010COGNIZANT   DRN          R$  000000004390500000000439050000000043905000000004390500000000439050000000000000000000000000000001000000000000000015000000000000658575000000000000009999123100000010000000000000BRCTSHBDR002118
012021111102CURY3       010CURY S/A    ON      NM   R$  000000000075200000000007640000000000730000000000074700000000007390000000000738000000000073904949000000000000833600000000000623419400000000000000009999123100000010000000000000BRCURYACNOR3101
012021111102CVCB3       010CVC BRASIL  ON      NM   R$  000000000177000000000018600000000001764000000000181700000000018300000000001829000000000183015970000000000007919500000000014389894300000000000000009999123100000010000000000000BRCVCBACNOR1114
012021111102CVSH34      010CVS HEALTH  DRN          R$  000000002519400000000252200000000025194000000002521100000000252200000000025230000000000000000002000000000000000060000000000001512680000000000000009999123100000010000000000000BRCVSHBDR008122
012021111102CXSE3       010CAIXA SEGURION  ED  NM   R$  000000000090600000000009520000000000905000000000093100000000009440000000000943000000000094414521000000000004161100000000003877672300000000000000009999123100000010000000000000BRCXSEACNOR7101
012021111102CYRE3       010CYRELA REALTON      NM   R$  000000000163400000000017030000000001624000000000167000000000016570000000001649000000000165721948000000000007727800000000012906719800000000000000009999123100000010000000000000BRCYREACNOR7136
012021111102D1DG34      010DATADOG INC DRN          R$  000000001046000000000104990000000010325000000001048100000000103250000000003500000000001300000040000000000000004371000000000045815645000000000000009999123100000010000000000000BRD1DGBDR001100
012021111102D1EL34      010DELL TECHNOLDRN EC       R$  000000003050000000000305000000000030400000000003041300000000304000000000030100000000003200000004000000000000000069000000000002098500000000000000009999123100000010000000000000BRD1ELBDR009101
012021111102D1EX34      010DEXCOM INC  DRN          R$  000000000672000000000068810000000006720000000000684100000000068350000000005663000000000790000538000000000000009334000000000063857372000000000000009999123100000010000000000000BRD1EXBDR004100
012021111102D1FS34      010DISCOVER FINDRN          R$  000000003200000000000320000000000032000000000003200000000000320000000000000000000000000000000002000000000000000055000000000001760000000000000000009999123100000010000000000000BRD1FSBDR001107
012021111102D1HI34      010DR HORTON INDRN          R$  000000005223900000000522390000000052239000000005223900000000522390000000000000000000000000000001000000000000000019000000000000992541000000000000009999123100000010000000000000BRD1HIBDR008107
012021111102D1IS34      010DISH NETWORKDRN          R$  000000001936000000000193600000000019360000000001936000000000193600000000000000000000000000000001000000000000000020000000000000387200000000000000009999123100000010000000000000BRD1ISBDR005100
012021111102D1LR34      010DIGITAL REALDRN          R$  000000002060100000000207700000000020601000000002062500000000207700000000020597000000000000000003000000000000000007000000000000144376000000000000009999123100000010000000000000BRD1LRBDR001107
012021111102D1OC34      010DOCUSIGN INCDRN          R$  000000000703600000000070360000000006867000000000691300000000068670000000006750000000000723000257000000000000000972000000000006719493000000000000009999123100000010000000000000BRD1OCBDR007100
012021111102D1OM34      010DOMINION ENEDRN          R$  000000002026500000000202650000000020207000000002023600000000202070000000000000000000000000000002000000000000000002000000000000040472000000000000009999123100000010000000000000BRD1OMBDR006107
012021111102D1OW34      010DOW INC     DRN          R$  000000000806400000000080640000000008064000000000806400000000080640000000001000000000000902000001000000000000000001000000000000008064000000000000009999123100000010000000000000BRD1OWBDR005104
012021111102D1VN34      010DEVON ENERGYDRN          R$  000000002309200000000233600000000023016000000002316000000000231900000000022500000000000000000009000000000000000325000000000007527093000000000000009999123100000010000000000000BRD1VNBDR009108
012021111102D2AS34      010DOORDASH INCDRN          R$  000000000815200000000081520000000008152000000000815200000000081520000000006600000000000000000001000000000000000005000000000000040760000000000000009999123100000010000000000000BRD2ASBDR000100
012021111102D2PZ34      010DOMINOSPIZZADRN          R$  000000000541500000000054720000000005394000000000547100000000054720000000000000000000000548000003000000000000000402000000000002199531000000000000009999123100000010000000000000BRD2PZBDR003101
012021111102DASA3       010DASA        ON      NM   R$  000000000365100000000038650000000003651000000000379500000000038300000000003830000000000384001128000000000000129800000000000492643900000000000000009999123100000010000000000000BRDASAACNOR1120
012021111102DCVY34      010DISCOVERY INDRN A        R$  000000001540000000000154000000000015400000000001540000000000154000000000012500000000002200000001000000000000000040000000000000616000000000000000009999123100000010000000000000BRDCVYBDR005100
012021111102DDNB34      010DUPONT N INCDRN          R$  000000004347200000000434720000000043472000000004347200000000434720000000026000000000000000000001000000000000000001000000000000043472000000000000009999123100000010000000000000BRDDNBBDR008109
012021111102DESK3       010DESKTOP     ON      NM   R$  000000000191000000000020320000000001910000000000197600000000019700000000001955000000000197002481000000000000400700000000000792167800000000000000009999123100000010000000000000BRDESKACNOR2100
012021111102DEXP3       010DEXXOS PAR  ON      N1   R$  000000000096100000000010330000000000948000000000100200000000010010000000001001000000000101803874000000000000812400000000000814042800000000000000009999123100000010000000000000BRDEXPACNOR1101
012021111102DEXP4       010DEXXOS PAR  PN      N1   R$  000000000082800000000008290000000000790000000000081500000000008240000000000800000000000082400010000000000000001600000000000001304200000000000000009999123100000010000000000000BRDEXPACNPR8101
012021111102DGCO34      010DOLLAR GENERDRN          R$  000000005978000000000597800000000059780000000005978000000000597800000000055000000000006722900001000000000000000001000000000000059780000000000000009999123100000010000000000000BRDGCOBDR007110
012021111102DHER34      010DANAHER CORPDRN          R$  000000004129200000000413860000000041292000000004133900000000413860000000000000000000000000000002000000000000000140000000000005787460000000000000009999123100000010000000000000BRDHERBDR004126
012021111102DIRR3       010DIRECIONAL  ON      NM   R$  000000000108100000000011710000000001076000000000112900000000011130000000001113000000000111612883000000000002881400000000003254531300000000000000009999123100000010000000000000BRDIRRACNOR0114
012021111102DISB34      010WALT DISNEY DRN          R$  000000000600000000000060000000000005729000000000587200000000058910000000005860000000000589107607000000000000516867000000003035267377000000000000009999123100000010000000000000BRDISBBDR006115
012021111102DMMO3       010DOMMO       ON           R$  000000000007300000000000730000000000067000000000006900000000000690000000000068000000000006901046000000000005287800000000000367684600000000000000009999123100000010000000000000BRDMMOACNOR0104
012021111102DMVF3       010D1000VFARMA ON      NM   R$  000000000059100000000006030000000000586000000000059200000000005870000000000587000000000059400421000000000000187100000000000110838400000000000000009999123100000010000000000000BRDMVFACNOR9100
012021111102DOHL3       010DOHLER      ON           R$  000000000187000000000018700000000001870000000000187000000000018700000000001751000000000199100002000000000000000200000000000000374000000000000000009999123100000010000000000000BRDOHLACNOR2062
012021111102DOHL4       010DOHLER      PN           R$  000000000061800000000006190000000000600000000000060700000000006150000000000600000000000062100027000000000000004500000000000002733700000000000000009999123100000010000000000000BRDOHLACNPR9065
012021111102DOTZ3       010DOTZ SA     ON      NM   R$  000000000054800000000005690000000000503000000000053300000000005610000000000525000000000056100177000000000000048900000000000026085700000000000000009999123100000010000000000000BRDOTZACNOR7100
012021111102DTCY3       010DTCOM-DIRECTON           R$  000000000074000000000007400000000000740000000000074000000000007400000000000720000000000074000001000000000000000100000000000000074000000000000000009999123100000010000000000000BRDTCYACNOR5109
012021111102DXCO3       010DEXCO       ON      NM   R$  000000000167800000000017760000000001661000000000175200000000017570000000001756000000000175816878000000000003853100000000006753221000000000000000009999123100000010000000000000BRDXCOACNOR8100
012021111102E1CO34      010ECOPETROL SADRN          R$  000000000390000000000040180000000003500000000000380300000000040040000000003501000000000000000006000000000000000074000000000000281476000000000000009999123100000010000000000000BRE1COBDR006101
012021111102E1DU34      010NEW ORIENTALDRN          R$  000000000007500000000000790000000000074000000000007500000000000770000000000077000000000007800034000000000000015673000000000001189647000000000000009999123100000010000000000000BRE1DUBDR001101
012021111102E1IX34      010EDISON INTERDRN          R$  000000001764800000000176480000000017648000000001764800000000176480000000000000000000000000000001000000000000000300000000000005294400000000000000009999123100000010000000000000BRE1IXBDR004108
012021111102E1MR34      010EMERSON ELECDRN ED       R$  000000005284100000000528410000000052841000000005284100000000528410000000000000000000000000000001000000000000000030000000000001585230000000000000009999123100000010000000000000BRE1MRBDR008108
012021111102E1NI34      010ENEL AMERICADRN          R$  000000000334800000000033490000000003330000000000334800000000033490000000003279000000000334900004000000000000003016000000000010100550000000000000009999123100000010000000000000BRE1NIBDR005102
012021111102E1OG34      010EOG RESOURCEDRN          R$  000000002597400000000259740000000025792000000002589800000000257920000000000000000000000000000003000000000000000055000000000001424410000000000000009999123100000010000000000000BRE1OGBDR007108
012021111102E1QN34      010EQUINOR ASA DRN ED       R$  000000000706300000000070630000000007060000000000706200000000070600000000000000000000000784700002000000000000000102000000000000720420000000000000009999123100000010000000000000BRE1QNBDR008105
012021111102E1QR34      010EQUITY RESIDDRN          R$  000000002315300000000236000000000023153000000002322700000000236000000000000000000000002500000002000000000000000006000000000000139365000000000000009999123100000010000000000000BRE1QRBDR009106
012021111102E1RI34      010ERICSSON LM DRN          R$  000000000300000000000030000000000002958000000000298600000000029860000000002910000000000298600006000000000000003440000000000010271948000000000000009999123100000010000000000000BRE1RIBDR006102
012021111102E1SS34      010ESSEX PROPERDRN          R$  000000001850600000000190000000000018491000000001850800000000190000000000018374000000001943000003000000000000000030000000000000555269000000000000009999123100000010000000000000BRE1SSBDR003107
012021111102E1TN34      010EATON CORP PDRN ED       R$  000000004652000000000465200000000046520000000004652000000000465200000000000000000000005520000001000000000000002625000000000122115000000000000000009999123100000010000000000000BRE1TNBDR002108
012021111102E2TS34      010ETSY INC    DRN          R$  000000000911700000000091170000000009117000000000911700000000091170000000007000000000000000000001000000000000000050000000000000455850000000000000009999123100000010000000000000BRE2TSBDR009100
012021111102EAIN34      010ELECTR ARTS DRN          R$  000000003842400000000394440000000038267000000003894800000000389130000000038300000000004000000216000000000000000359000000000013982373000000000000009999123100000010000000000000BREAINBDR007104
012021111102EALT3       010ACO ALTONA  ON           R$  000000000114900000000012490000000001149000000000122100000000012480000000001151000000000124800011000000000000001100000000000001343400000000000000009999123100000010000000000000BREALTACNOR4134
012021111102EALT4       010ACO ALTONA  PN           R$  000000000062800000000006290000000000618000000000062400000000006180000000000618000000000062200049000000000000015100000000000009426300000000000000009999123100000010000000000000BREALTACNPR1134
012021111102EBAY34      010EBAY        DRN          R$  000000002005000000000202010000000019840000000001999500000000199850000000019804000000001998500148000000000000000488000000000009757986000000000000009999123100000010000000000000BREBAYBDR009112
012021111102ECOR3       010ECORODOVIAS ON  ATZ NM   R$  000000000089000000000009210000000000883000000000090700000000009050000000000905000000000090611180000000000004988700000000004527207700000000000000009999123100000010000000000000BRECORACNOR8117
012021111102EEEL4       010CEEE-T      PN      N1   R$  000000003500000000000350000000000035000000000003500000000000350000000000000000000000003500000001000000000000000100000000000003500000000000000000009999123100000010000000000000BREEELACNPR5111
012021111102EGIE3       010ENGIE BRASILON      NM   R$  000000000401300000000040440000000004003000000000402600000000040260000000004025000000000402606931000000000001116100000000004494499000000000000000009999123100000010000000000000BREGIEACNOR9116
012021111102ELCI34      010ESTEE LAUDERDRN          R$  000000009547500000000954750000000092244000000009303600000000932900000000092816000000010250000102000000000000000812000000000075545288000000000000009999123100000010000000000000BRELCIBDR007108
012021111102ELET3       010ELETROBRAS  ON      N1   R$  000000000362800000000036380000000003581000000000361300000000035920000000003592000000000359318821000000000004261200000000015398705100000000000000009999123100000010000000000000BRELETACNOR6157
012021111102ELET6       010ELETROBRAS  PNB     N1   R$  000000000357700000000035900000000003532000000000356200000000035380000000003538000000000354007157000000000001541600000000005491479900000000000000009999123100000010000000000000BRELETACNPB7074
012021111102ELMD3       010ELETROMIDIA ON      NM   R$  000000000150300000000015520000000001433000000000147800000000014700000000001441000000000149301424000000000000276000000000000408187200000000000000009999123100000010000000000000BRELMDACNOR3100
012021111102EMAE4       010EMAE        PN           R$  000000000800000000000080000000000007405000000000769700000000079960000000007610000000000799700082000000000000013800000000000106225700000000000000009999123100000010000000000000BREMAEACNPR1118
012021111102EMBR3       010EMBRAER     ON      NM   R$  000000000230000000000023670000000002275000000000231900000000022990000000002299000000000230214556000000000008671100000000020116084000000000000000009999123100000010000000000000BREMBRACNOR4190
012021111102ENAT3       010ENAUTA PART ON      NM   R$  000000000145200000000014880000000001399000000000145000000000014630000000001463000000000147007927000000000001760300000000002552524500000000000000009999123100000010000000000000BRENATACNOR0102
012021111102ENBR3       010ENERGIAS BR ON      NM   R$  000000000209500000000021470000000002087000000000212000000000021200000000002119000000000212017287000000000004882100000000010353599500000000000000009999123100000010000000000000BRENBRACNOR2131
012021111102ENEV3       010ENEVA       ON      NM   R$  000000000155800000000015800000000001543000000000156100000000015520000000001551000000000155218742000000000004395700000000006862793200000000000000009999123100000010000000000000BRENEVACNOR8105
012021111102ENGI3       010ENERGISA    ON      N2   R$  000000000147300000000015610000000001472000000000153200000000015330000000001533000000000155000067000000000000006800000000000010420900000000000000009999123100000010000000000000BRENGIACNOR0140
012021111102ENGI4       010ENERGISA    PN      N2   R$  000000000068800000000007010000000000687000000000069400000000006870000000000686000000000069000112000000000000026600000000000018482100000000000000009999123100000010000000000000BRENGIACNPR7136
012021111102ENGI11      010ENERGISA    UNT     N2   R$  000000000423700000000043640000000004236000000000431500000000042880000000004287000000000428810718000000000002063200000000008903076100000000000000009999123100000010000000000000BRENGICDAM16130
012021111102ENJU3       010ENJOEI      ON      NM   R$  000000000044100000000004610000000000432000000000044400000000004370000000000437000000000043903978000000000001578100000000000701853400000000000000009999123100000010000000000000BRENJUACNOR9100
012021111102EPAR3       010EMBPAR S/A  ON           R$  000000000119900000000014000000000001160000000000125700000000013990000000001256000000000139900067000000000000017600000000000022125500000000000000009999123100000010000000000000BREPARACNOR9100
012021111102EQIX34      010EQUINIX INC DRN          R$  000000000543500000000054350000000005221000000000522600000000052760000000005215000000000600000013000000000000056266000000000294079748000000000000009999123100000010000000000000BREQIXBDR002111
012021111102EQMA3B      010EQTLMARANHAOON      MB   R$  000000000429200000000042920000000004292000000000429200000000042920000000004280000000000430000001000000000000009000000000000038628000000000000000009999123100000010000000000000BREQMAACNOR8104
012021111102EQPA3       010EQTL PARA   ON           R$  000000000050400000000005100000000000501000000000050500000000005010000000000501000000000050800011000000000000003700000000000001868800000000000000009999123100000010000000000000BREQPAACNOR1104
012021111102EQPA5       010EQTL PARA   PNA          R$  000000000072000000000007200000000000700000000000071000000000007000000000000680000000000080000007000000000000002000000000000001420000000000000000009999123100000010000000000000BREQPAACNPA4104
012021111102EQTL3       010EQUATORIAL  ON      NM   R$  000000000243500000000025200000000002423000000000248300000000024760000000002476000000000247731426000000000007899500000000019620487100000000000000009999123100000010000000000000BREQTLACNOR0127
012021111102ESPA3       010ESPACOLASER ON      NM   R$  000000000110000000000011660000000001085000000000113000000000011330000000001125000000000113309392000000000002203400000000002490152200000000000000009999123100000010000000000000BRESPAACNOR7102
012021111102EUCA3       010EUCATEX     ON      N1   R$  000000000155000000000016400000000001550000000000157000000000016000000000001552000000000162000088000000000000025400000000000039878800000000000000009999123100000010000000000000BREUCAACNOR1153
012021111102EUCA4       010EUCATEX     PN      N1   R$  000000000089900000000009630000000000855000000000090300000000009440000000000930000000000094400710000000000000279900000000000253002700000000000000009999123100000010000000000000BREUCAACNPR8040
012021111102EVEN3       010EVEN        ON      NM   R$  000000000071100000000007350000000000692000000000071000000000006980000000000697000000000069807750000000000002535200000000001802448200000000000000009999123100000010000000000000BREVENACNOR8114
012021111102EXXO34      010EXXON MOBIL DRN ED       R$  000000000871400000000087540000000008669000000000871000000000086730000000008673000000000885000089000000000000005864000000000051079596000000000000009999123100000010000000000000BREXXOBDR006145
012021111102EZTC3       010EZTEC       ON      NM   R$  000000000210900000000022390000000002097000000000218100000000021690000000002165000000000217015626000000000003520800000000007680984700000000000000009999123100000010000000000000BREZTCACNOR0115
012021111102F1AN34      010DIAMONDBACK DRN ED       R$  000000003022500000000302250000000028986000000002942000000000294000000000000000000000003198100022000000000000000098000000000002883226000000000000009999123100000010000000000000BRF1ANBDR001108
012021111102F1EC34      010FIRSTENERGY DRN ED       R$  000000002085800000000211050000000020858000000002098700000000211050000000000000000000000000000005000000000000000010000000000000209877000000000000009999123100000010000000000000BRF1ECBDR006108
012021111102F1FI34      010F5 NETWORKS DRN          R$  000000003057800000000305780000000030578000000003057800000000305780000000000000000000000000000001000000000000000021000000000000642138000000000000009999123100000010000000000000BRF1FIBDR000100
012021111102F1MC34      010FMC CORP    DRN          R$  000000002868700000000286870000000028687000000002868700000000286870000000025000000000000000000001000000000000000030000000000000860610000000000000009999123100000010000000000000BRF1MCBDR009107
012021111102F1RI34      010FEDERAL REALDRN          R$  000000001733400000000173340000000017334000000001733400000000173340000000000000000000000000000001000000000000000004000000000000069336000000000000009999123100000010000000000000BRF1RIBDR005107
012021111102F1TN34      010FORTINET INCDRN          R$  000000009191000000000919100000000090900000000009164500000000909000000000090400000000009580000003000000000000000068000000000006231900000000000000009999123100000010000000000000BRF1TNBDR001100
012021111102F1TV34      010FORTIVE CORPDRN          R$  000000002102000000000210200000000021020000000002102000000000210200000000000000000000000000000001000000000000000046000000000000966920000000000000009999123100000010000000000000BRF1TVBDR004108
012021111102FASL34      010FASTENAL    DRN          R$  000000003187100000000319900000000031871000000003198000000000319900000000000000000000000000000002000000000000000013000000000000415751000000000000009999123100000010000000000000BRFASLBDR007112
012021111102FBOK34      010FACEBOOK    DRN          R$  000000000643500000000064350000000006318000000000637500000000063640000000006335000000000636402580000000000000138803000000000884932149000000000000009999123100000010000000000000BRFBOKBDR006101
012021111102FCXO34      010FREEPORT    DRN          R$  000000002050000000000222650000000020500000000002179900000000221460000000021796000000002252200052000000000000002965000000000064636017000000000000009999123100000010000000000000BRFCXOBDR007135
012021111102FDMO34      010FORD MOTORS DRN          R$  000000001062700000000109700000000010432000000001053800000000109700000000010494000000001097000298000000000000012140000000000127937173000000000000009999123100000010000000000000BRFDMOBDR008133
012021111102FDXB34      010FEDEX CORP  DRN          R$  000000013627200000001362720000000136272000000013627200000001362720000000000000000000015502000001000000000000000002000000000000272544000000000000009999123100000010000000000000BRFDXBBDR002132
012021111102FESA3       010FERBASA     ON      N1   R$  000000000499900000000050000000000004825000000000485900000000048450000000004840000000000492900020000000000000003200000000000015550900000000000000009999123100000010000000000000BRFESAACNOR8175
012021111102FESA4       010FERBASA     PN      N1   R$  000000000469200000000051410000000004680000000000500400000000050350000000005034000000000504003479000000000000918200000000004594955000000000000000009999123100000010000000000000BRFESAACNPR5071
012021111102FIQE3       010UNIFIQUE    ON      NM   R$  000000000062100000000006700000000000616000000000065100000000006700000000000660000000000067001919000000000000497400000000000323948500000000000000009999123100000010000000000000BRFIQEACNOR5100
012021111102FLRY3       010FLEURY      ON      NM   R$  000000000212900000000021800000000002114000000000215900000000021400000000002139000000000214308950000000000002362200000000005100774200000000000000009999123100000010000000000000BRFLRYACNOR5130
012021111102FLTC34      010FLEETCOR TECDRN          R$  000000003250200000000325020000000032502000000003250200000000325020000000000000000000000000000001000000000000000015000000000000487530000000000000009999123100000010000000000000BRFLTCBDR001100
012021111102FRAS3       010FRAS-LE     ON      N1   R$  000000000153300000000015950000000001486000000000152600000000014900000000001490000000000150903017000000000000426400000000000651077400000000000000009999123100000010000000000000BRFRASACNOR0152
012021111102FSLR34      010FIRST SOLAR DRN          R$  000000002949300000000307500000000029493000000002970500000000307500000000029000000000003200000013000000000000000307000000000009119517000000000000009999123100000010000000000000BRFSLRBDR001100
012021111102G1PC34      010GENUINE PARTDRN          R$  000000003649700000000364970000000036497000000003649700000000364970000000000000000000004000000001000000000000000001000000000000036497000000000000009999123100000010000000000000BRG1PCBDR001107
012021111102G1PI34      010GLOBAL PAYMEDRN          R$  000000001747600000000174760000000017476000000001747600000000174760000000017000000000002150000001000000000000000029000000000000506804000000000000009999123100000010000000000000BRG1PIBDR008107
012021111102G1SK34      010GLAXOSMITHKLDRN          R$  000000000468000000000046800000000004675000000000467900000000046750000000004299000000000491400002000000000000000051000000000000238675000000000000009999123100000010000000000000BRG1SKBDR008104
012021111102G1WW34      010WW GRAINGER DRN ED       R$  000000000648900000000064890000000006489000000000648900000000064890000000005808000000000000000001000000000000006325000000000041042925000000000000009999123100000010000000000000BRG1WWBDR005109
012021111102G2DD34      010GODADDY INC DRN          R$  000000000395600000000039560000000003956000000000395600000000039560000000003700000000000000000001000000000000000100000000000000395600000000000000009999123100000010000000000000BRG2DDBDR003100
012021111102G2DI33      010G2D INVEST  DR3          R$  000000000064500000000006620000000000640000000000065000000000006400000000000640000000000064202093000000000000102369000000000066612676000000000000009999123100000010000000000000BRG2DIBDR002100
012021111102GEOO34      010GE          DRN          R$  000000005925000000000592500000000057540000000005817100000000579850000000053739000000006040000058000000000000000353000000000020534523000000000000009999123100000010000000000000BRGEOOBDR000146
012021111102GEPA4       010GER PARANAP PN           R$  000000000322900000000032290000000003229000000000322900000000032290000000003250000000000340000001000000000000000200000000000000645800000000000000009999123100000010000000000000BRGEPAACNPR9155
012021111102GETT3       010GETNET BR   ON           R$  000000000025000000000002550000000000245000000000025000000000002480000000000248000000000024901067000000000000615900000000000153982500000000000000009999123100000010000000000000BRGETTACNOR4100
012021111102GETT4       010GETNET BR   PN           R$  000000000021100000000002160000000000205000000000021100000000002140000000000212000000000021400977000000000000322600000000000068382300000000000000009999123100000010000000000000BRGETTACNPR1100
012021111102GETT11      010GETNET BR   UNT          R$  000000000046000000000004740000000000452000000000046500000000004680000000000467000000000046802875000000000000817900000000000380514900000000000000009999123100000010000000000000BRGETTCDAM17100
012021111102GFSA3       010GAFISA      ON      NM   R$  000000000023000000000002430000000000229000000000023700000000002390000000000238000000000023906089000000000008362000000000001986565900000000000000009999123100000010000000000000BRGFSAACNOR3120
012021111102GGBR3       010GERDAU      ON  EDJ N1   R$  000000000200100000000020970000000002001000000000207400000000020670000000002064000000000207600356000000000000103500000000000214753300000000000000009999123100000010000000000000BRGGBRACNOR1180
012021111102GGBR4       010GERDAU      PN  EDJ N1   R$  000000000244500000000025420000000002445000000000251000000000025110000000002510000000000251146990000000000019438200000000048799220700000000000000009999123100000010000000000000BRGGBRACNPR8180
012021111102GGPS3       010GPS         ON      NM   R$  000000000172300000000017230000000001671000000000169700000000016940000000001692000000000169403556000000000000932600000000001583310500000000000000009999123100000010000000000000BRGGPSACNOR9100
012021111102GILD34      010GILEAD      DRN          R$  000000001812700000000181270000000018127000000001812700000000181270000000018145000000001853500001000000000000000001000000000000018127000000000000009999123100000010000000000000BRGILDBDR000122
012021111102GMAT3       010GRUPO MATEUSON      NM   R$  000000000073000000000007390000000000722000000000073400000000007360000000000735000000000073605483000000000001897200000000001394420300000000000000009999123100000010000000000000BRGMATACNOR7100
012021111102GMCO34      010GENERAL MOT DRN          R$  000000000807500000000084000000000008047000000000823400000000083590000000008370000000000840000422000000000000034633000000000285180902000000000000009999123100000010000000000000BRGMCOBDR008116
012021111102GNDI3       010INTERMEDICA ON      NM   R$  000000000734800000000077550000000007135000000000758900000000076620000000007662000000000767125586000000000005678000000000043090892500000000000000009999123100000010000000000000BRGNDIACNOR2103
012021111102GOAU3       010GERDAU MET  ON  EDJ N1   R$  000000000094500000000009770000000000942000000000095700000000009550000000000951000000000095500585000000000000292600000000000280086400000000000000009999123100000010000000000000BRGOAUACNOR1257
