00COTAHIST.2021BOVESPA 20211109                                                                                                                                                                                                                      
012021110902A1AP34      010ADVANCE AUTODRN          R$  000000000780000000000079630000000007800000000000796200000000079630000000006977000000000000000002000000000000005704000000000045420789000000000000009999123100000010000000000000BRA1APBDR001108
012021110902A1CR34      010AMCOR PLC   DRN          R$  000000000664200000000066420000000006642000000000664200000000066420000000006551000000000000000001000000000000000030000000000000199260000000000000009999123100000010000000000000BRA1CRBDR003104
012021110902A1DI34      010ANALOG DEVICDRN          R$  000000005130600000000513060000000050873000000005108900000000508730000000000000000000000000000002000000000000000002000000000000102179000000000000009999123100000010000000000000BRA1DIBDR000107
012021110902A1DM34      010ARCHER DANIEDRN          R$  000000003510500000000351050000000035105000000003510500000000351050000000000000000000000000000001000000000000000002000000000000070210000000000000009999123100000010000000000000BRA1DMBDR002107
012021110902A1EG34      010AEGON NV    DRN          R$  000000000275700000000027570000000002664000000000268200000000026640000000002636000000000286500003000000000000000129000000000000346035000000000000009999123100000010000000000000BRA1EGBDR002102
012021110902A1ES34      010AES CORP    DRN ED       R$  000000001324600000000132460000000013246000000001324600000000132460000000000000000000001324600001000000000000000002000000000000026492000000000000009999123100000010000000000000BRA1ESBDR007108
012021110902A1GI34      010AGILENT TECHDRN          R$  000000004451300000000446400000000043751000000004403000000000437850000000000000000000000000000843000000000000001600000000000070448616000000000000009999123100000010000000000000BRA1GIBDR003107
012021110902A1IV34      010APARTMENT INDRN          R$  000000000440000000000044000000000004352000000000438300000000043870000000004100000000000000000011000000000000000263000000000001152856000000000000009999123100000010000000000000BRA1IVBDR002106
012021110902A1KA34      010AKAMAI TECHNDRN          R$  000000000499500000000049950000000004985000000000499100000000049850000000004400000000000545400004000000000000000006000000000000029950000000000000009999123100000010000000000000BRA1KABDR002101
012021110902A1LB34      010ALBEMARLE CODRN          R$  000000015276800000001527680000000152768000000015276800000001527680000000000000000000000000000001000000000000000010000000000001527680000000000000009999123100000010000000000000BRA1LBBDR008107
012021110902A1LG34      010ALIGN TECHNODRN          R$  000000009823100000000982310000000095832000000009686400000000974160000000079050000000011000000572000000000000000649000000000062864926000000000000009999123100000010000000000000BRA1LGBDR007100
012021110902A1LK34      010ALASKA AIR GDRN          R$  000000003201000000000320100000000031878000000003194400000000318780000000000000000000003350000002000000000000000002000000000000063888000000000000009999123100000010000000000000BRA1LKBDR009101
012021110902A1LL34      010ALLIANCE DATDRN EC       R$  000000001040000000000104000000000010140000000001019700000000103100000000010100000000001110000008000000000000000184000000000001876400000000000000009999123100000010000000000000BRA1LLBDR007108
012021110902A1LN34      010ALNYLAM PHARDRN          R$  000000000513000000000051300000000005130000000000513000000000051300000000004574000000000550000001000000000000000001000000000000005130000000000000009999123100000010000000000000BRA1LNBDR003100
012021110902A1MD34      010ADVANCED MICDRN          R$  000000008474500000000853610000000079662000000008256900000000815080000000080438000000008170000322000000000000003442000000000284202692000000000000009999123100000010000000000000BRA1MDBDR002100
012021110902A1MP34      010AMERIPRISE FDRN ED       R$  000000004192500000000419250000000041925000000004192500000000419250000000000000000000004300000001000000000000000032000000000001341600000000000000009999123100000010000000000000BRA1MPBDR006108
012021110902A1MT34      010APPLIED MATEDRN          R$  000000008453200000000860200000000084532000000008495900000000860200000000075081000000000000000008000000000000000055000000000004672790000000000000009999123100000010000000000000BRA1MTBDR008107
012021110902A1MX34      010AMERICAMOVILDRN ED       R$  000000000509500000000050950000000005027000000000503200000000050300000000000000000000000000000004000000000000000023000000000000115752000000000000009999123100000010000000000000BRA1MXBDR000103
012021110902A1NE34      010ARISTA NETWODRN          R$  000000007348800000000734880000000073488000000007348800000000734880000000069500000000000000000001000000000000000009000000000000661392000000000000009999123100000010000000000000BRA1NEBDR008100
012021110902A1NT34      010ANTHEM INC  DRN          R$  000000004722600000000472260000000047226000000004722600000000472260000000000000000000000000000001000000000000000014000000000000661164000000000000009999123100000010000000000000BRA1NTBDR006107
012021110902A1PA34      010APA CORP    DRN          R$  000000001726400000000172640000000016636000000001705600000000166360000000000000000000000000000004000000000000000137000000000002336732000000000000009999123100000010000000000000BRA1PABDR001108
012021110902A1RE34      010ALEXANDRIA RDRN          R$  000000002833300000000283330000000028333000000002833300000000283330000000000000000000002940000002000000000000000064000000000001813312000000000000009999123100000010000000000000BRA1REBDR009107
012021110902A1RG34      010ARGENX SE   DRN          R$  000000000703900000000070390000000007039000000000703900000000070390000000007039000000000800000002000000000000000003000000000000021117000000000000009999123100000010000000000000BRA1RGBDR004100
012021110902A1TH34      010AUTOHOME INCDRN          R$  000000000210000000000021000000000002100000000000210000000000021000000000002000000000000211600001000000000000000005000000000000010500000000000000009999123100000010000000000000BRA1THBDR008101
012021110902A1UA34      010ANGLOGOLD ASDRN          R$  000000000260500000000026050000000002593000000000260100000000026050000000002100000000000295000005000000000000000073000000000000189925000000000000009999123100000010000000000000BRA1UABDR001102
012021110902A1UT34      010AUTODESK INCDRN          R$  000000004549500000000455390000000044887000000004520400000000449880000000041531000000000000000186000000000000000229000000000010351853000000000000009999123100000010000000000000BRA1UTBDR001100
012021110902A1ZN34      010ASTRAZENECA DRN          R$  000000000579000000000058080000000005706000000000572100000000058000000000005716000000000580000074000000000000002850000000000016306817000000000000009999123100000010000000000000BRA1ZNBDR003102
012021110902A2MC34      010AMC ENTERT HDRN          R$  000000000410100000000041010000000003646000000000368100000000037360000000002800000000000000000007000000000000000239000000000000879795000000000000009999123100000010000000000000BRA2MCBDR002100
012021110902AALL34      010AMERICAN AIRDRN          R$  000000001228600000000122860000000011980000000001213600000000121860000000012031000000001225000167000000000000005063000000000061448004000000000000009999123100000010000000000000BRAALLBDR003115
012021110902AALR3       010ALLIAR      ON      NM   R$  000000000144600000000014590000000001408000000000143300000000014350000000001433000000000143501723000000000000345000000000000494555800000000000000009999123100000010000000000000BRAALRACNOR6102
012021110902AAPL34      010APPLE       DRN ED       R$  000000000830900000000083090000000008220000000000827000000000082530000000008253000000000828002089000000000000152431000000001260641109000000000000009999123100000010000000000000BRAAPLBDR004140
012021110902ABBV34      010ABBVIE      DRN          R$  000000006374900000000637500000000063680000000006374800000000636810000000000000000000000000000006000000000000000472000000000030089491000000000000009999123100000010000000000000BRABBVBDR001123
012021110902ABCB4       010ABC BRASIL  PN      N2   R$  000000000163200000000016590000000001622000000000163900000000016280000000001628000000000163505593000000000000789600000000001294831900000000000000009999123100000010000000000000BRABCBACNPR4138
012021110902ABEV3       010AMBEV S/A   ON           R$  000000000177000000000018090000000001770000000000179000000000017890000000001788000000000178933899000000000023812900000000042641154700000000000000009999123100000010000000000000BRABEVACNOR1124
012021110902ABTT34      010ABBOTT      DRN          R$  000000001756600000000175660000000017374000000001744800000000173910000000017300000000001791200009000000000000000022000000000000383863000000000000009999123100000010000000000000BRABTTBDR007140
012021110902ABUD34      010AB INBEV    DRN          R$  000000000554900000000055490000000005460000000000549700000000054800000000005410000000000574800007000000000000000672000000000003694529000000000000009999123100000010000000000000BRABUDBDR009104
012021110902ACNB34      010ACCENTURE   DRN          R$  000000020112600000002011260000000201126000000020112600000002011260000000200000000000021000000001000000000000000001000000000000201126000000000000009999123100000010000000000000BRACNBBDR006117
012021110902ADBE34      010ADOBE INC   DRN          R$  000000000746400000000074640000000007282000000000732100000000073250000000007280000000000738800084000000000000018225000000000133428151000000000000009999123100000010000000000000BRADBEBDR003101
012021110902ADPR34      010AUTOMATIC DTDRN          R$  000000006200000000000626220000000062000000000006215500000000626220000000049437000000000000000002000000000000000004000000000000248622000000000000009999123100000010000000000000BRADPRBDR005109
012021110902AERI3       010AERIS       ON      NM   R$  000000000079500000000008050000000000771000000000078000000000007710000000000771000000000077505099000000000002070000000000001615133100000000000000009999123100000010000000000000BRAERIACNOR4100
012021110902AESB3       010AES BRASIL  ON      NM   R$  000000000111800000000011540000000001115000000000113800000000011370000000001137000000000113902781000000000000667600000000000759872200000000000000009999123100000010000000000000BRAESBACNOR7102
012021110902AFLT3       010AFLUENTE T  ON           R$  000000000086500000000008650000000000865000000000086500000000008650000000000865000000000087900001000000000000000300000000000000259500000000000000009999123100000010000000000000BRAFLTACNOR1117
012021110902AGRO3       010BRASILAGRO  ON  ED  NM   R$  000000000276800000000029060000000002768000000000285600000000028200000000002818000000000282006908000000000001638100000000004678932500000000000000009999123100000010000000000000BRAGROACNOR7111
012021110902AGXY3       010AGROGALAXY  ON      NM   R$  000000000075000000000007720000000000750000000000076400000000007650000000000765000000000079900029000000000000009700000000000007414600000000000000009999123100000010000000000000BRAGXYACNOR4100
012021110902AIRB34      010AIRBNB      DRN          R$  000000000557200000000055720000000005141000000000530600000000053360000000005340000000000539501132000000000000097361000000000516673740000000000000009999123100000010000000000000BRAIRBBDR004100
012021110902ALLD3       010ALLIED      ON      NM   R$  000000000171000000000017390000000001620000000000166400000000016560000000001623000000000165601702000000000000283800000000000472414900000000000000009999123100000010000000000000BRALLDACNOR3101
012021110902ALPA3       010ALPARGATAS  ON  EDJ N1   R$  000000000339800000000034410000000003398000000000341200000000034410000000003440000000000356100006000000000000000900000000000003070900000000000000009999123100000010000000000000BRALPAACNOR0230
012021110902ALPA4       010ALPARGATAS  PN  EDJ N1   R$  000000000403300000000042540000000004029000000000414700000000041250000000004125000000000412718040000000000002439800000000010118548100000000000000009999123100000010000000000000BRALPAACNPR7230
012021110902ALPK3       010ESTAPAR     ON      NM   R$  000000000049800000000005370000000000484000000000050900000000005040000000000497000000000051000088000000000000032900000000000016763300000000000000009999123100000010000000000000BRALPKACNOR9101
012021110902ALSO3       010ALIANSCSONAEON      NM   R$  000000000203600000000021020000000002036000000000208500000000020950000000002084000000000209505788000000000001233300000000002571729400000000000000009999123100000010000000000000BRALSOACNOR5101
012021110902ALUP3       010ALUPAR      ON      N2   R$  000000000079900000000008120000000000799000000000081000000000008060000000000806000000000080800050000000000000016400000000000013293200000000000000009999123100000010000000000000BRALUPACNOR8112
012021110902ALUP4       010ALUPAR      PN      N2   R$  000000000081900000000008360000000000814000000000082500000000008360000000000817000000000084000045000000000000007200000000000005941000000000000000009999123100000010000000000000BRALUPACNPR5112
012021110902ALUP11      010ALUPAR      UNT     N2   R$  000000000243200000000024810000000002431000000000246500000000024620000000002462000000000246903591000000000000743000000000001831505500000000000000009999123100000010000000000000BRALUPCDAM15112
012021110902AMAR3       010LOJAS MARISAON      NM   R$  000000000047900000000004840000000000452000000000046600000000004530000000000453000000000045509391000000000009414100000000004388451600000000000000009999123100000010000000000000BRAMARACNOR4112
012021110902AMBP3       010AMBIPAR     ON      NM   R$  000000000386900000000041270000000003854000000000403200000000040210000000004018000000000403604323000000000000845300000000003408559600000000000000009999123100000010000000000000BRAMBPACNOR6101
012021110902AMER3       010AMERICANAS  ON      NM   R$  000000000330600000000035770000000003301000000000349200000000035180000000003517000000000352022730000000000008829400000000030832617200000000000000009999123100000010000000000000BRAMERACNOR6100
012021110902AMGN34      010AMGEN       DRN          R$  000000000416400000000041640000000004150000000000415700000000041500000000004040000000000420100002000000000000000002000000000000008314000000000000009999123100000010000000000000BRAMGNBDR004140
012021110902AMZO34      010AMAZON      DRN          R$  000000001236900000000125500000000012247000000001247200000000124470000000012447000000001250001473000000000000163988000000002045363352000000000000009999123100000010000000000000BRAMZOBDR002102
012021110902ANIM3       010ANIMA       ON      NM   R$  000000000069500000000007180000000000680000000000069400000000006990000000000697000000000069906877000000000002717600000000001886835200000000000000009999123100000010000000000000BRANIMACNOR6107
012021110902APER3       010ALPER S.A.  ON      NM   R$  000000000350200000000037000000000003435000000000352100000000034350000000003435000000000354600291000000000000047900000000000168682200000000000000009999123100000010000000000000BRAPERACNOR9103
012021110902ARML3       010ARMAC       ON      NM   R$  000000000256100000000026000000000002520000000000257200000000025860000000002586000000000259901648000000000000324900000000000835955800000000000000009999123100000010000000000000BRARMLACNOR1100
012021110902ARMT34      010ARCELOR     DRN          R$  000000000916100000000091610000000008730000000000881500000000087930000000008745000000000890000049000000000000001558000000000013734970000000000000009999123100000010000000000000BRARMTBDR008118
012021110902ARZZ3       010AREZZO CO   ON      NM   R$  000000000764700000000078640000000007598000000000771300000000076250000000007623000000000762503972000000000000657700000000005073286700000000000000009999123100000010000000000000BRARZZACNOR3140
012021110902ASAI3       010ASSAI       ON      NM   R$  000000000154900000000015790000000001535000000000155700000000015500000000001550000000000155217290000000000006124400000000009539784900000000000000009999123100000010000000000000BRASAIACNOR0103
012021110902ASML34      010ASML HOLD   DRN ED       R$  000000046507400000004652890000000464610000000046507100000004646100000000446500000000047900000004000000000000000225000000000104641152000000000000009999123100000010000000000000BRASMLBDR003105
012021110902ATOM3       010ATOMPAR     ON           R$  000000000036400000000003790000000000364000000000037100000000003650000000000365000000000037400067000000000000021000000000000007801500000000000000009999123100000010000000000000BRATOMACNOR1104
012021110902ATTB34      010ATT INC     DRN          R$  000000000461500000000046150000000004490000000000452300000000045030000000004503000000000457200103000000000000003071000000000013891870000000000000009999123100000010000000000000BRATTBBDR007138
012021110902ATVI34      010ACTIVISION  DRN          R$  000000003713300000000371330000000036435000000003671700000000371320000000036435000000003713200106000000000000000887000000000032568525000000000000009999123100000010000000000000BRATVIBDR008102
012021110902AURA33      010AURA 360    DR3          R$  000000000497300000000050300000000004958000000000499700000000049950000000004995000000000499907718000000000000070278000000000351198274000000000000009999123100000010000000000000BRAURABDR001104
012021110902AVGO34      010BROADCOM INCDRN          R$  000000000883500000000088350000000008730000000000874000000000087300000000008599000000000883500110000000000000002605000000000022769942000000000000009999123100000010000000000000BRAVGOBDR003111
012021110902AVLL3       010ALPHAVILLE  ON      NM   R$  000000000295000000000031100000000002940000000000300100000000031100000000002960000000000311000018000000000000003500000000000010504000000000000000009999123100000010000000000000BRAVLLACNOR5101
012021110902AXPB34      010AMERICAN EXPDRN          R$  000000000984000000000099450000000009800000000000983000000000099000000000009649000000000998400027000000000000000708000000000006960245000000000000009999123100000010000000000000BRAXPBBDR007139
012021110902AZEV3       010AZEVEDO     ON           R$  000000000039400000000004090000000000390000000000040200000000004050000000000405000000000040700151000000000000067300000000000027109400000000000000009999123100000010000000000000BRAZEVACNOR0119
012021110902AZEV4       010AZEVEDO     PN           R$  000000000031700000000003420000000000317000000000033100000000003380000000000337000000000033900582000000000000488100000000000161612900000000000000009999123100000010000000000000BRAZEVACNPR7119
012021110902AZUL4       010AZUL        PN      N2   R$  000000000282600000000028780000000002770000000000281000000000027780000000002778000000000278115418000000000007172100000000020157158500000000000000009999123100000010000000000000BRAZULACNPR4101
012021110902B1AM34      010BROOKFIELD ADRN          R$  000000000842200000000084220000000008422000000000842200000000084220000000008301000000000852000001000000000000000001000000000000008422000000000000009999123100000010000000000000BRB1AMBDR007107
012021110902B1AX34      010BAXTER INTERDRN          R$  000000002138100000000213810000000021381000000002138100000000213810000000000000000000000000000001000000000000000017000000000000363477000000000000009999123100000010000000000000BRB1AXBDR004107
012021110902B1BL34      010BHP GROUP PLDRN          R$  000000000580100000000058010000000005656000000000567500000000056830000000005661000000000616900008000000000000000029000000000000164603000000000000009999123100000010000000000000BRB1BLBDR007102
012021110902B1CS34      010BARCLAYS PLCDRN          R$  000000000580800000000058080000000005775000000000580500000000057750000000005024000000000000000002000000000000000214000000000001242450000000000000009999123100000010000000000000BRB1CSBDR000102
012021110902B1GN34      010BEIGENE LTD DRN          R$  000000000803500000000082000000000008035000000000813700000000082000000000006500000000000000000003000000000000000725000000000005900000000000000000009999123100000010000000000000BRB1GNBDR002100
012021110902B1IL34      010BILIBILI INCDRN          R$  000000000843300000000084960000000008357000000000843500000000084780000000008163000000000856500420000000000000000576000000000004858569000000000000009999123100000010000000000000BRB1ILBDR002100
012021110902B1NT34      010BIONTECH SE DRN          R$  000000001750500000000182570000000015398000000001631300000000156000000000015600000000001567201330000000000000107875000000001759773311000000000000009999123100000010000000000000BRB1NTBDR005100
012021110902B1PP34      010BP PLC      DRN          R$  000000000392800000000039280000000003828000000000389000000000038570000000003857000000000389300027000000000000002364000000000009196621000000000000009999123100000010000000000000BRB1PPBDR008104
012021110902B1SA34      010BANCO SANTANDRN          R$  000000000535000000000053500000000005315000000000532000000000053150000000005005000000000550000002000000000000000006000000000000031925000000000000009999123100000010000000000000BRB1SABDR004102
012021110902B1SX34      010BOSTON SCIENDRN          R$  000000002367600000000236760000000023676000000002367600000000236760000000017777000000000000000001000000000000000023000000000000544548000000000000009999123100000010000000000000BRB1SXBDR006100
012021110902B1TI34      010BRITISH AMERDRN          R$  000000000384400000000038520000000003796000000000382800000000038320000000003805000000000386600128000000000000009052000000000034651103000000000000009999123100000010000000000000BRB1TIBDR005104
012021110902B2YN34      010BEYOND MEAT DRN          R$  000000000265500000000027140000000002650000000000268500000000027140000000002600000000000320000004000000000000000145000000000000389335000000000000009999123100000010000000000000BRB2YNBDR003100
012021110902B3SA3       010B3          ON      NM   R$  000000000122800000000012800000000001222000000000126000000000012640000000001263000000000126552914000000000032675500000000041186756300000000000000009999123100000010000000000000BRB3SAACNOR6118
012021110902BAAX39      010MSCI ASIA JPDRN          R$  000000000480000000000048000000000004720000000000473500000000047390000000004700000000000478400038000000000000009861000000000046697152000000000000009999123100000010000000000000BRBAAXBDR009102
012021110902BABA34      010ALIBABAGR   DRN          R$  000000000317400000000032370000000003124000000000316500000000031400000000003133000000000316001267000000000000359045000000001136526292000000000000009999123100000010000000000000BRBABABDR005101
012021110902BACW39      010MSCI ACWI   DRN          R$  000000000595000000000060060000000005850000000000588600000000058870000000005800000000000588700024000000000000004499000000000026485006000000000000009999123100000010000000000000BRBACWBDR007102
012021110902BAER39      010US AEROSPACEDRN          R$  000000000297700000000029770000000002977000000000297700000000029770000000002935000000000356700001000000000000000039000000000000116103000000000000009999123100000010000000000000BRBAERBDR003105
012021110902BAHI3       010BAHEMA      ON      MA   R$  000000000144900000000014490000000001401000000000142100000000014010000000001400000000000144300011000000000000001200000000000001705500000000000000009999123100000010000000000000BRBAHIACNOR1073
012021110902BALM4       010BAUMER      PN           R$  000000000128100000000013680000000001280000000000131500000000013680000000001300000000000136600004000000000000000500000000000000657700000000000000009999123100000010000000000000BRBALMACNPR2052
012021110902BAUH4       010EXCELSIOR   PN           R$  000000000810200000000083850000000008001000000000818200000000083850000000008024000000000838700008000000000000000800000000000006546200000000000000009999123100000010000000000000BRBAUHACNPR3116
012021110902BAZA3       010AMAZONIA    ON           R$  000000000380600000000038500000000003805000000000383100000000038050000000003750000000000385300006000000000000001000000000000003831600000000000000009999123100000010000000000000BRBAZAACNOR0175
012021110902BBAS3       010BRASIL      ON      NM   R$  000000000304000000000030620000000002944000000000298800000000029440000000002944000000000295040643000000000020778600000000062091047300000000000000009999123100000010000000000000BRBBASACNOR3301
012021110902BBDC3       010BRADESCO    ON  EJ  N1   R$  000000000169800000000017280000000001666000000000168900000000016740000000001674000000000167513113000000000008106000000000013694383300000000000000009999123100000010000000000000BRBBDCACNOR1733
012021110902BBDC4       010BRADESCO    PN  EJ  N1   R$  000000000196500000000020030000000001924000000000195100000000019300000000001930000000000193190192000000000060857600000000118735572900000000000000009999123100000010000000000000BRBBDCACNPR8733
012021110902BBRK3       010BR BROKERS  ON      NM   R$  000000000014900000000001520000000000144000000000014700000000001470000000000147000000000014800978000000000001598000000000000235165400000000000000009999123100000010000000000000BRBBRKACNOR4114
012021110902BBSE3       010BBSEGURIDADEON      NM   R$  000000000227800000000023460000000002272000000000232300000000023440000000002341000000000234422801000000000006207900000000014426282300000000000000009999123100000010000000000000BRBBSEACNOR5119
012021110902BCHI39      010MSCI CHINA  DRN          R$  000000000471500000000047150000000004635000000000465600000000046450000000004616000000000467000016000000000000001378000000000006416061000000000000009999123100000010000000000000BRBCHIBDR001102
012021110902BCIR39      010FT NASDCYBERDRN          R$  000000000618100000000061810000000006181000000000618100000000061810000000006100000000000000000001000000000000000008000000000000049448000000000000009999123100000010000000000000BRBCIRBDR000100
012021110902BCSA34      010SANTANDER   DRN ED       R$  000000000211800000000021190000000002020000000000203800000000020380000000002021000000000206400047000000000000001624000000000003310214000000000000009999123100000010000000000000BRBCSABDR005104
012021110902BDVY39      010SELECT DIVIDDRN          R$  000000000660000000000066080000000006560000000000659900000000066080000000006460000000000660800009000000000000003050000000000020127714000000000000009999123100000010000000000000BRBDVYBDR007104
012021110902BEEF3       010MINERVA     ON      NM   R$  000000000104300000000010550000000001018000000000103700000000010400000000001040000000000104110737000000000005425800000000005631525100000000000000009999123100000010000000000000BRBEEFACNOR6111
012021110902BEEM39      010MSCI EMGMARKDRN          R$  000000000473300000000047330000000004675000000000470100000000046760000000004676000000000471500008000000000000000253000000000001189594000000000000009999123100000010000000000000BRBEEMBDR006102
012021110902BEES3       010BANESTES    ON  EJ       R$  000000000048100000000004890000000000480000000000048200000000004800000000000481000000000048200069000000000000012900000000000006230000000000000000009999123100000010000000000000BRBEESACNOR9354
012021110902BEES4       010BANESTES    PN  EJ       R$  000000000056100000000005920000000000560000000000058000000000005770000000000575000000000059100013000000000000001300000000000000754200000000000000009999123100000010000000000000BRBEESACNPR6279
012021110902BEFA39      010MSCI EAFE   DRN          R$  000000000564700000000056470000000005583000000000558900000000055830000000005362000000000562900007000000000000000203000000000001134697000000000000009999123100000010000000000000BRBEFABDR008102
012021110902BEGD39      010TRTMSCI EAFEDRN          R$  000000000563300000000056400000000005629000000000563200000000056290000000000000000000000572300003000000000000001588000000000008943765000000000000009999123100000010000000000000BRBEGDBDR000102
012021110902BEGE39      010INC ESG AWARDRN          R$  000000000576600000000057660000000005766000000000576600000000057660000000005438000000000619800016000000000000020000000000000115320000000000000000009999123100000010000000000000BRBEGEBDR008102
012021110902BEGU39      010TRUSTMSCI USDRN          R$  000000000605000000000060500000000005858000000000586100000000058970000000005729000000000589700064000000000000054395000000000318854931000000000000009999123100000010000000000000BRBEGUBDR004104
012021110902BEMV39      010MSCIEMMRKMI DRN          R$  000000000603300000000060330000000006033000000000603300000000060330000000000000000000000000000001000000000000000006000000000000036198000000000000009999123100000010000000000000BRBEMVBDR000101
012021110902BERK34      010BERKSHIRE   DRN          R$  000000000803500000000080350000000007691000000000786600000000078920000000007833000000000789201295000000000000055314000000000435148717000000000000009999123100000010000000000000BRBERKBDR002101
012021110902BEWA39      010MSCIAUSTRALIDRN          R$  000000000479900000000047990000000004799000000000479900000000047990000000004555000000000000000001000000000000000001000000000000004799000000000000009999123100000010000000000000BRBEWABDR003101
012021110902BEWC39      010MSCI CANADA DRN          R$  000000000548700000000054870000000005487000000000548700000000054870000000005100000000000548700001000000000000002596000000000014244252000000000000009999123100000010000000000000BRBEWCBDR009101
012021110902BEWG39      010MSCI GERMANYDRN          R$  000000000635000000000063500000000006274000000000629900000000063090000000006202000000000635000005000000000000001201000000000007566166000000000000009999123100000010000000000000BRBEWGBDR000102
012021110902BEWH39      010MSCIHONGKONGDRN          R$  000000000448400000000044840000000004473000000000447300000000044730000000004406000000000000000002000000000000000015000000000000067106000000000000009999123100000010000000000000BRBEWHBDR008102
012021110902BEWJ39      010MSCI JAPAN  DRN          R$  000000000491000000000049100000000004770000000000479500000000047930000000004724000000000482900013000000000000002358000000000011306998000000000000009999123100000010000000000000BRBEWJBDR004102
012021110902BEWL39      010MSCI SWITZERDRN          R$  000000000554600000000055460000000005546000000000554600000000055460000000005516000000000000000001000000000000000130000000000000720980000000000000009999123100000010000000000000BRBEWLBDR000101
012021110902BEWP39      010MSCI SPAIN  DRN          R$  000000000516000000000051600000000005160000000000516000000000051600000000000000000000000000000001000000000000000001000000000000005160000000000000009999123100000010000000000000BRBEWPBDR001103
012021110902BEWQ39      010MSCI FRANCE DRN          R$  000000000550200000000055020000000005502000000000550200000000055020000000005340000000000000000001000000000000000208000000000001144416000000000000009999123100000010000000000000BRBEWQBDR009101
012021110902BEWT39      010MSCI TAIWAN DRN          R$  000000000597400000000059740000000005974000000000597400000000059740000000005830000000000597400001000000000000000985000000000005884390000000000000009999123100000010000000000000BRBEWTBDR003101
012021110902BEWU39      010MSCI UK     DRN          R$  000000000618600000000061880000000006116000000000612000000000061200000000006120000000000620000008000000000000009806000000000060013509000000000000009999123100000010000000000000BRBEWUBDR001102
012021110902BEWY39      010MSCISOUTHKORDRN          R$  000000000544800000000054480000000005408000000000541100000000054080000000005327000000000577500002000000000000000012000000000000064936000000000000009999123100000010000000000000BRBEWYBDR003101
012021110902BEZU39      010MSCIEUROZONEDRN          R$  000000000707000000000070700000000007062000000000706800000000070700000000005746000000000707000003000000000000002986000000000021107044000000000000009999123100000010000000000000BRBEZUBDR004102
012021110902BFBI39      010FT NYSE BIOTDRN          R$  000000000450000000000045000000000004471000000000448500000000044710000000000000000000000000000003000000000000000011000000000000049337000000000000009999123100000010000000000000BRBFBIBDR007100
012021110902BFCG39      010FT NAT GAS  DRN          R$  000000000518000000000051800000000005180000000000518000000000051800000000005008000000000621600001000000000000000001000000000000005180000000000000009999123100000010000000000000BRBFCGBDR009101
012021110902BFDL39      010FTMOR DV LEADRN          R$  000000000476100000000047610000000004761000000000476100000000047610000000004500000000000000000001000000000000000020000000000000095220000000000000009999123100000010000000000000BRBFDLBDR007101
012021110902BGIP3       010BANESE      ON           R$  000000000315000000000031500000000003150000000000315000000000031500000000003100000000000315000001000000000000000100000000000000315000000000000000009999123100000010000000000000BRBGIPACNOR1201
012021110902BGIP4       010BANESE      PN           R$  000000000224000000000022400000000002240000000000224000000000022400000000002230000000000230000001000000000000000100000000000000224000000000000000009999123100000010000000000000BRBGIPACNPR8201
012021110902BGRT39      010GLOBAL REIT DRN          R$  000000000542700000000054690000000005427000000000546000000000054650000000005091000000000552500003000000000000000153000000000000835521000000000000009999123100000010000000000000BRBGRTBDR008102
012021110902BGWH39      010COREDIVGROWTDRN          R$  000000000596800000000059680000000005935000000000593500000000059350000000000000000000000593500002000000000000003426000000000020333838000000000000009999123100000010000000000000BRBGWHBDR003102
012021110902BHPG34      010BHP GROUP   DRN          R$  000000002925000000000292500000000029250000000002925000000000292500000000029143000000003600000001000000000000000020000000000000585000000000000000009999123100000010000000000000BRBHPGBDR007104
012021110902BIAU39      010GOLD TRUST  DRN          R$  000000000480600000000048060000000004755000000000477500000000047950000000004761000000000480300056000000000000010540000000000050337114000000000000009999123100000010000000000000BRBIAUBDR008102
012021110902BIBB39      010ICE BIOTECH DRN          R$  000000000576700000000057950000000005698000000000570000000000056990000000005680000000000622400015000000000000002630000000000014992022000000000000009999123100000010000000000000BRBIBBBDR006104
012021110902BIDI3       010BANCO INTER ON      N2   R$  000000000144000000000014570000000001356000000000139700000000014000000000001400000000000140406888000000000001370900000000001916477700000000000000009999123100000010000000000000BRBIDIACNOR3110
012021110902BIDI4       010BANCO INTER PN      N2   R$  000000000146000000000014850000000001404000000000144700000000014480000000001447000000000144829248000000000011019900000000015947450400000000000000009999123100000010000000000000BRBIDIACNPR0114
012021110902BIDI11      010BANCO INTER UNT     N2   R$  000000000431500000000044220000000004143000000000427500000000042830000000004283000000000428430880000000000009550900000000040836159500000000000000009999123100000010000000000000BRBIDICDAXX3109
012021110902BIDU34      010BAIDU INC   DRN          R$  000000008925900000000892590000000087932000000008837700000000884660000000086580000000008999800049000000000000000049000000000004330508000000000000009999123100000010000000000000BRBIDUBDR002100
012021110902BIEF39      010COREMSCIEAFEDRN          R$  000000000530000000000053380000000005300000000000533600000000053370000000005300000000000533700003000000000000000469000000000002502980000000000000009999123100000010000000000000BRBIEFBDR001102
012021110902BIEM39      010COREMSCI EMKDRN          R$  000000000578300000000057900000000005740000000000576600000000057400000000005710000000000615000010000000000000000070000000000000403678000000000000009999123100000010000000000000BRBIEMBDR007102
012021110902BIEU39      010COREMSCI EURDRN          R$  000000000552000000000055200000000005451000000000547300000000054510000000005424000000000556100020000000000000012493000000000068375930000000000000009999123100000010000000000000BRBIEUBDR000102
012021110902BIEV39      010EUROPE ETF  DRN          R$  000000000615200000000061520000000006046000000000614600000000060460000000005995000000000625800003000000000000000038000000000000233564000000000000009999123100000010000000000000BRBIEVBDR008101
012021110902BIGF39      010GLOBAL INFRADRN          R$  000000000662200000000066220000000006600000000000661700000000066150000000006466000000000707200005000000000000000146000000000000966162000000000000009999123100000010000000000000BRBIGFBDR006102
012021110902BIHI39      010USMEDICDEVICDRN          R$  000000000103000000000010310000000001013000000000102900000000010130000000001013000000000117300003000000000000000011000000000000011319000000000000009999123100000010000000000000BRBIHIBDR008103
012021110902BIIB34      010BIOGEN      DRN          R$  000000002505000000000250500000000024574000000002481200000000245740000000020777000000002836900002000000000000000004000000000000099248000000000000009999123100000010000000000000BRBIIBBDR001101
012021110902BIJH39      010CORE MIDCAP DRN          R$  000000000796500000000079700000000007965000000000796900000000079700000000007216000000000797000003000000000000001253000000000009986350000000000000009999123100000010000000000000BRBIJHBDR006104
012021110902BIJR39      010CORESMALLCAPDRN          R$  000000000829200000000082920000000008200000000000825100000000082640000000007800000000000826400016000000000000000888000000000007326971000000000000009999123100000010000000000000BRBIJRBDR005104
012021110902BILB34      010BILBAOVIZ   DRN          R$  000000000380000000000038000000000003800000000000380000000000038000000000000000000000000000000001000000000000000010000000000000038000000000000000009999123100000010000000000000BRBILBBDR005103
012021110902BIOM3       010BIOMM       ON      MA   R$  000000000135200000000013680000000001350000000000135600000000013680000000001350000000000146100024000000000000003500000000000004746600000000000000009999123100000010000000000000BRBIOMACNOR2108
012021110902BITO39      010CORE SP TOTADRN          R$  000000000594800000000059480000000005826000000000589300000000058990000000005839000000000589900021000000000000004450000000000026226305000000000000009999123100000010000000000000BRBITOBDR001104
012021110902BIVB39      010CORE SP 500 DRN          R$  000000000651000000000065100000000006400000000000644700000000064550000000006400000000000645500039000000000000005956000000000038402411000000000000009999123100000010000000000000BRBIVBBDR004104
012021110902BIVE39      010SP500 VALUE DRN          R$  000000000568500000000057050000000005671000000000567600000000056710000000005309000000000567100007000000000000004709000000000026732848000000000000009999123100000010000000000000BRBIVEBDR008102
012021110902BIVW39      010SP500GROWTH DRN          R$  000000000574800000000057480000000005649000000000565200000000056490000000005594000000000564900008000000000000001834000000000010366848000000000000009999123100000010000000000000BRBIVWBDR000102
012021110902BIWF39      010RUSSEL1000GRDRN          R$  000000000673300000000067330000000006689000000000668900000000066890000000005893000000000668900003000000000000001345000000000008996989000000000000009999123100000010000000000000BRBIWFBDR003102
012021110902BIWM39      010RUSSELL 2000DRN          R$  000000000665000000000066500000000006573000000000662200000000066360000000006501000000000663600021000000000000007808000000000051710340000000000000009999123100000010000000000000BRBIWMBDR009104
012021110902BIXJ39      010GLOBALHEALTHDRN          R$  000000000634800000000063660000000006000000000000600500000000060000000000005977000000000654700012000000000000001001000000000006011227000000000000009999123100000010000000000000BRBIXJBDR003102
012021110902BIXN39      010GLOBAL TECH DRN          R$  000000000121600000000012160000000001137000000000114300000000011420000000001142000000000116400015000000000000000598000000000000684026000000000000009999123100000010000000000000BRBIXNBDR005103
012021110902BIYE39      010BKR US ENER DRN          R$  000000000588200000000059400000000005882000000000590300000000059400000000000000000000000000000002000000000000001340000000000007910880000000000000009999123100000010000000000000BRBIYEBDR002100
012021110902BIYF39      010US FINANCIALDRN          R$  000000000337900000000033790000000003228000000000324900000000032540000000003220000000000338500029000000000000003275000000000010643368000000000000009999123100000010000000000000BRBIYFBDR009105
012021110902BIYW39      010US TECHNOLOGDRN          R$  000000000180600000000018060000000001785000000000179000000000017900000000001775000000000214400012000000000000003468000000000006210595000000000000009999123100000010000000000000BRBIYWBDR004105
012021110902BKBR3       010BK BRASIL   ON      NM   R$  000000000080400000000008170000000000796000000000081000000000008100000000000810000000000081104688000000000002592800000000002100788100000000000000009999123100000010000000000000BRBKBRACNOR4103
012021110902BKNG34      010BOOKING     DRN          R$  000000000823800000000083940000000008209000000000832100000000083190000000008230000000000836902989000000000000107501000000000894594510000000000000009999123100000010000000000000BRBKNGBDR006101
012021110902BLAK34      010BLACKROCK   DRN          R$  000000008819900000000887330000000087300000000008817200000000884660000000087221000000008999900007000000000000000009000000000000793555000000000000009999123100000010000000000000BRBLAKBDR003122
012021110902BLAU3       010BLAU        ON      NM   R$  000000000375000000000037500000000003585000000000365700000000037000000000003690000000000370003542000000000000533800000000001952199700000000000000009999123100000010000000000000BRBLAUACNOR8102
012021110902BMEB3       010MERC BRASIL ON      N1   R$  000000000203000000000020300000000002030000000000203000000000020300000000001950000000000203000003000000000000000300000000000000609000000000000000009999123100000010000000000000BRBMEBACNOR8198
012021110902BMEB4       010MERC BRASIL PN      N1   R$  000000000180000000000018000000000001756000000000178600000000017640000000001761000000000179400012000000000000003400000000000006073700000000000000009999123100000010000000000000BRBMEBACNPR5203
012021110902BMGB4       010BANCO BMG   PN      N1   R$  000000000032300000000003300000000000320000000000032500000000003240000000000323000000000032402633000000000000878500000000000285578500000000000000009999123100000010000000000000BRBMGBACNPR0102
012021110902BMKS3       010BIC MONARK  ON           R$  000000002290000000000232800000000022900000000002310700000000232800000000022900000000002328000008000000000000000044000000000001016720000000000000009999123100000010000000000000BRBMKSACNOR9163
012021110902BMOB3       010BEMOBI TECH ON      NM   R$  000000000140100000000014320000000001386000000000140100000000014010000000001398000000000140102692000000000000617000000000000864737100000000000000009999123100000010000000000000BRBMOBACNOR7100
012021110902BMTU39      010MSCIUSAMOM FDRN          R$  000000000536900000000053690000000005233000000000523500000000052330000000004870000000000523300002000000000000000270000000000001413454000000000000009999123100000010000000000000BRBMTUBDR000102
012021110902BNDA39      010MSCI INDIA  DRN          R$  000000000690000000000069150000000006897000000000690800000000069120000000006837000000000691200009000000000000001593000000000011005031000000000000009999123100000010000000000000BRBNDABDR004102
012021110902BOAC34      010BANK AMERICADRN          R$  000000000660500000000066050000000006355000000000639200000000063670000000006360000000000636700177000000000000031928000000000204092309000000000000009999123100000010000000000000BRBOACBDR004145
012021110902BOAS3       010BOA VISTA   ON      NM   R$  000000000084100000000008660000000000824000000000084600000000008470000000000845000000000084702577000000000000556700000000000470978400000000000000009999123100000010000000000000BRBOASACNOR6101
012021110902BOBR4       010BOMBRIL     PN           R$  000000000017500000000001800000000000174000000000017700000000001750000000000175000000000017700331000000000000101900000000000018051700000000000000009999123100000010000000000000BRBOBRACNPR3128
012021110902BOEI34      010BOEING      DRN          R$  000000012000000000001201710000000119679000000011996600000001201710000000118500000000012300000005000000000000000048000000000005758414000000000000009999123100000010000000000000BRBOEIBDR003132
012021110902BONY34      010BNY MELLON  DRN ED       R$  000000003215200000000321520000000032000000000003209600000000320000000000000000000000003260400004000000000000000008000000000000256770000000000000009999123100000010000000000000BRBONYBDR001125
012021110902BOXP34      010BOSTON PROP DRN          R$  000000000644600000000064460000000006446000000000644600000000064460000000006144000000000689900001000000000000000003000000000000019338000000000000009999123100000010000000000000BRBOXPBDR008125
012021110902BPAC3       010BTGP BANCO  ON      N2   R$  000000000153900000000016000000000001470000000000152900000000014720000000001470000000000151300115000000000000013500000000000020645800000000000000009999123100000010000000000000BRBPACACNOR7125
012021110902BPAC5       010BTGP BANCO  PNA     N2   R$  000000000054400000000005480000000000520000000000053500000000005290000000000523000000000053000170000000000000084000000000000045014700000000000000009999123100000010000000000000BRBPACACNPA0125
012021110902BPAC11      010BTGP BANCO  UNT     N2   R$  000000000240500000000024780000000002261000000000234400000000022940000000002286000000000229453988000000000023411200000000054896337900000000000000009999123100000010000000000000BRBPACUNT006110
012021110902BPAN4       010BANCO PAN   PN      N1   R$  000000000123000000000012580000000001201000000000122100000000012160000000001216000000000122017267000000000008356400000000010206276700000000000000009999123100000010000000000000BRBPANACNPR1111
012021110902BQUA39      010MSCIUSQUAL FDRN          R$  000000000560000000000056000000000005301000000000536300000000053220000000005270000000000532200003000000000000003373000000000018090001000000000000009999123100000010000000000000BRBQUABDR001102
012021110902BRAP3       010BRADESPAR   ON      N1   R$  000000000444000000000044400000000004281000000000432700000000043390000000004295000000000433901230000000000000223300000000000966317200000000000000009999123100000010000000000000BRBRAPACNOR5140
012021110902BRAP4       010BRADESPAR   PN      N1   R$  000000000467000000000046790000000004542000000000458000000000045800000000004577000000000458013757000000000003036600000000013910382000000000000000009999123100000010000000000000BRBRAPACNPR2140
012021110902BRBI11      010BR PARTNERS UNT     N2   R$  000000000166300000000017490000000001651000000000168700000000016770000000001677000000000169000386000000000000072100000000000121683100000000000000009999123100000010000000000000BRBRBICDAM10100
012021110902BRFS3       010BRF SA      ON      NM   R$  000000000231900000000024070000000002318000000000235800000000023540000000002354000000000235516797000000000006131500000000014458963400000000000000009999123100000010000000000000BRBRFSACNOR8120
012021110902BRGE3       010ALFA CONSORCON           R$  000000000078200000000007820000000000782000000000078200000000007820000000000750000000000093000001000000000000000100000000000000078200000000000000009999123100000010000000000000BRBRGEACNOR6203
012021110902BRIT3       010BRISANET    ON      NM   R$  000000000075200000000007570000000000684000000000070200000000006900000000000690000000000069802552000000000001490400000000001046743200000000000000009999123100000010000000000000BRBRITACNOR0100
012021110902BRKM3       010BRASKEM     ON      N1   R$  000000000532300000000054170000000005323000000000539200000000054020000000005335000000000540000014000000000000002000000000000010784100000000000000009999123100000010000000000000BRBRKMACNOR1117
012021110902BRKM5       010BRASKEM     PNA     N1   R$  000000000557300000000057480000000005550000000000566500000000056300000000005630000000000564010688000000000001861500000000010546405300000000000000009999123100000010000000000000BRBRKMACNPA4118
012021110902BRML3       010BR MALLS PARON      NM   R$  000000000076000000000007920000000000757000000000078500000000007870000000000787000000000078824843000000000016351800000000012840258800000000000000009999123100000010000000000000BRBRMLACNOR9116
012021110902BRPR3       010BR PROPERT  ON      NM   R$  000000000078100000000007910000000000757000000000076800000000007670000000000766000000000076705100000000000002025200000000001556996200000000000000009999123100000010000000000000BRBRPRACNOR9121
012021110902BRSR3       010BANRISUL    ON      N1   R$  000000000124000000000012490000000001222000000000123300000000012490000000001244000000000127900020000000000000003100000000000003823600000000000000009999123100000010000000000000BRBRSRACNOR3175
012021110902BRSR6       010BANRISUL    PNB     N1   R$  000000000111500000000011370000000001115000000000112500000000011200000000001120000000000112204347000000000001961300000000002207985600000000000000009999123100000010000000000000BRBRSRACNPB4178
012021110902BSCZ39      010BKR MS EAFE DRN          R$  000000000527900000000052790000000005279000000000527900000000052790000000000000000000000000000001000000000000000054000000000000285066000000000000009999123100000010000000000000BRBSCZBDR002100
012021110902BSLI4       010BRB BANCO   PN           R$  000000000165000000000016500000000001512000000000158500000000015120000000001535000000000164900004000000000000000400000000000000634200000000000000009999123100000010000000000000BRBSLIACNPR2183
012021110902BSLV39      010SILVER TRUSTDRN          R$  000000000419200000000041920000000004073000000000411100000000041160000000004080000000000413400201000000000000025455000000000104669092000000000000009999123100000010000000000000BRBSLVBDR002100
012021110902BSOX39      010BKR SEMICONDDRN          R$  000000000720000000000072020000000007089000000000715800000000070890000000007090000000000000000004000000000000000329000000000002355008000000000000009999123100000010000000000000BRBSOXBDR002100
012021110902BSUS39      010ESGMSCIUSA LDRN          R$  000000000580100000000058010000000005801000000000580100000000058010000000005300000000000579200001000000000000000034000000000000197234000000000000009999123100000010000000000000BRBSUSBDR009102
012021110902BUSM39      010MSCI US MVOLDRN          R$  000000000534800000000053530000000005340000000000535100000000053530000000005161000000000535300016000000000000004536000000000024273386000000000000009999123100000010000000000000BRBUSMBDR002104
012021110902BUSR39      010CORE US REITDRN          R$  000000000590000000000059000000000005816000000000587800000000058160000000004829000000000590000003000000000000000023000000000000135196000000000000009999123100000010000000000000BRBUSRBDR001102
012021110902BVLU39      010MSCIUSVALUEFDRN          R$  000000000592300000000059230000000005881000000000588100000000058810000000004895000000000588100002000000000000001310000000000007704446000000000000009999123100000010000000000000BRBVLUBDR008102
012021110902BXTC39      010EXPON TECHNLDRN          R$  000000000613800000000061470000000006138000000000613800000000061470000000005969000000000000000002000000000000000021000000000000128907000000000000009999123100000010000000000000BRBXTCBDR005101
012021110902C1AB34      010CABLE ONE INDRN          R$  000000000497000000000049700000000004962000000000496700000000049620000000000000000000000000000003000000000000003001000000000014906970000000000000009999123100000010000000000000BRC1ABBDR009104
012021110902C1BS34      010VIACOMCBS   DRN          R$  000000001980000000000198000000000019220000000001940300000000194200000000019200000000001999800511000000000000000705000000000013679187000000000000009999123100000010000000000000BRC1BSBDR001108
012021110902C1CI34      010CROWN CASTLEDRN          R$  000000002473300000000247330000000024723000000002472800000000247230000000000000000000000000000002000000000000000402000000000009940656000000000000009999123100000010000000000000BRC1CIBDR000107
012021110902C1CL34      010CARNIVAL CORDRN          R$  000000001354000000000135400000000013069000000001326700000000131040000000012050000000001454000117000000000000025229000000000334730032000000000000009999123100000010000000000000BRC1CLBDR004101
012021110902C1DW34      010CDW CORP    DRN          R$  000000000521500000000052150000000005215000000000521500000000052150000000000000000000000000000001000000000000000008000000000000041720000000000000009999123100000010000000000000BRC1DWBDR009104
012021110902C1GP34      010COSTAR GROUPDRN          R$  000000000045900000000004590000000000455000000000045600000000004550000000000420000000000049100002000000000000000003000000000000001369000000000000009999123100000010000000000000BRC1GPBDR006101
012021110902C1HI34      010CHINA PETROLDRN          R$  000000000440500000000044250000000004405000000000441800000000044250000000004418000000000499600006000000000000000644000000000002845468000000000000009999123100000010000000000000BRC1HIBDR009102
012021110902C1IC34      010CIGNA CORP  DRN          R$  000000002997000000000299700000000029730000000002983000000000297600000000000000000000000000000531000000000000000532000000000015869990000000000000009999123100000010000000000000BRC1ICBDR000104
012021110902C1MG34      010CHIPOTLE MEXDRN          R$  000000004990000000000499000000000049900000000004990000000000499000000000025324000000000000000001000000000000000009000000000000449100000000000000009999123100000010000000000000BRC1MGBDR003100
012021110902C1MI34      010CUMMINS INC DRN          R$  000000003214200000000322080000000032142000000003216400000000322080000000000000000000000000000002000000000000000207000000000006657948000000000000009999123100000010000000000000BRC1MIBDR009107
012021110902C1NS34      010CELANESE CORDRN ED       R$  000000004762100000000476210000000047621000000004762100000000476210000000000000000000000000000001000000000000000008000000000000380968000000000000009999123100000010000000000000BRC1NSBDR006108
012021110902C1OG34      010COTERRA ENERDRN          R$  000000001182500000000118250000000011825000000001182500000000118250000000009900000000000000000001000000000000000001000000000000011825000000000000009999123100000010000000000000BRC1OGBDR009108
012021110902C1PR34      010COPART INC  DRN          R$  000000004325800000000432580000000043258000000004325800000000432580000000000000000000004540000001000000000000000050000000000002162900000000000000009999123100000010000000000000BRC1PRBDR003100
012021110902C1RR34      010CARRIER GLOBDRN ED       R$  000000000743000000000074300000000007430000000000743000000000074300000000000000000000000000000001000000000000000001000000000000007430000000000000009999123100000010000000000000BRC1RRBDR009105
012021110902C1SU34      010CREDIT SUISSDRN          R$  000000000281600000000028160000000002778000000000278000000000027860000000002775000000000311000012000000000000000196000000000000545016000000000000009999123100000010000000000000BRC1SUBDR001102
012021110902C1TV34      010CORTEVA INC DRN          R$  000000000647000000000065800000000006470000000000650400000000065800000000000000000000000000000003000000000000000025000000000000162600000000000000009999123100000010000000000000BRC1TVBDR007104
012021110902C2OI34      010COINBASEGLOBDRN          R$  000000000801100000000080980000000007580000000000778000000000077700000000007770000000000797200225000000000000106016000000000824819780000000000000009999123100000010000000000000BRC2OIBDR003100
012021110902C2ON34      010CYRUSONE INCDRN          R$  000000000449000000000044900000000004490000000000449000000000044900000000004400000000000000000001000000000000000002000000000000008980000000000000009999123100000010000000000000BRC2ONBDR003102
012021110902CAJI34      010CANON INC   DRN          R$  000000001258400000000125840000000012100000000001234200000000121000000000000000000000001420000002000000000000000002000000000000024684000000000000009999123100000010000000000000BRCAJIBDR009104
012021110902CAMB3       010CAMBUCI     ON           R$  000000000047400000000004910000000000469000000000048500000000004860000000000477000000000048700132000000000000030300000000000014703400000000000000009999123100000010000000000000BRCAMBACNOR4119
012021110902CAML3       010CAMIL       ON      NM   R$  000000000103100000000010360000000001011000000000102100000000010250000000001023000000000102504587000000000001584000000000001618531300000000000000009999123100000010000000000000BRCAMLACNOR3116
012021110902CARD3       010CSU CARDSYSTON      NM   R$  000000000171200000000017910000000001711000000000175000000000017420000000001740000000000175801505000000000000238400000000000417205000000000000000009999123100000010000000000000BRCARDACNOR9124
012021110902CASH3       010MELIUZ      ON      NM   R$  000000000035900000000003940000000000359000000000038000000000003790000000000379000000000038023090000000000041425200000000015760766900000000000000009999123100000010000000000000BRCASHACNOR8102
012021110902CATP34      010CATERPILLAR DRN          R$  000000000742700000000074270000000007148000000000727300000000071950000000007148000000000722500166000000000000009971000000000072522559000000000000009999123100000010000000000000BRCATPBDR003142
012021110902CBAV3       010CBA         ON      NM   R$  000000000128000000000012820000000001206000000000125200000000012710000000001271000000000127506129000000000002324900000000002911341000000000000000009999123100000010000000000000BRCBAVACNOR5100
012021110902CCRO3       010CCR SA      ON      NM   R$  000000000115000000000011830000000001148000000000117100000000011620000000001162000000000116624294000000000009230700000000010811810800000000000000009999123100000010000000000000BRCCROACNOR2139
012021110902CEAB3       010CEA MODAS   ON      NM   R$  000000000071100000000007400000000000708000000000072600000000007270000000000726000000000072705326000000000001909500000000001386958700000000000000009999123100000010000000000000BRCEABACNOR1101
012021110902CEBR3       010CEB         ON           R$  000000000190000000000019050000000001820000000000184600000000018350000000001821000000000183500048000000000000014900000000000027513800000000000000009999123100000010000000000000BRCEBRACNOR5121
012021110902CEBR5       010CEB         PNA          R$  000000000188400000000018850000000001750000000000179500000000017990000000001750000000000178000010000000000000001400000000000002513700000000000000009999123100000010000000000000BRCEBRACNPA8120
012021110902CEBR6       010CEB         PNB          R$  000000000182000000000018490000000001720000000000177400000000017420000000001720000000000180900099000000000000013600000000000024131200000000000000009999123100000010000000000000BRCEBRACNPB6120
012021110902CEDO3       010CEDRO       ON      N1   R$  000000000070000000000007010000000000700000000000070000000000007000000000000700000000000073400004000000000000001800000000000001260100000000000000009999123100000010000000000000BRCEDOACNOR8096
012021110902CEDO4       010CEDRO       PN      N1   R$  000000000062000000000006200000000000613000000000061800000000006130000000000601000000000062900002000000000000000400000000000000247300000000000000009999123100000010000000000000BRCEDOACNPR5128
012021110902CEED3       010CEEE-D      ON           R$  000000000450000000000045000000000004500000000000450000000000045000000000003782000000000547600001000000000000000100000000000000450000000000000000009999123100000010000000000000BRCEEDACNOR9103
012021110902CEPE5       010CELPE       PNA          R$  000000000263200000000026320000000002632000000000263200000000026320000000002602000000000268900003000000000000000300000000000000789600000000000000009999123100000010000000000000BRCEPEACNPA6166
012021110902CESP3       010CESP        ON      N1   R$  000000000246800000000024700000000002390000000000241600000000023900000000002390000000000241000048000000000000013100000000000031650300000000000000009999123100000010000000000000BRCESPACNOR3171
012021110902CESP6       010CESP        PNB     N1   R$  000000000265900000000026750000000002638000000000265900000000026600000000002655000000000266005555000000000001141000000000003034609500000000000000009999123100000010000000000000BRCESPACNPB4130
012021110902CGAS5       010COMGAS      PNA          R$  000000001452200000000145220000000014321000000001446700000000144800000000014260000000001449000006000000000000000600000000000008680400000000000000009999123100000010000000000000BRCGASACNPA3150
012021110902CGRA3       010GRAZZIOTIN  ON           R$  000000000423000000000042800000000004136000000000422800000000042800000000003800000000000428000022000000000000004000000000000016915100000000000000009999123100000010000000000000BRCGRAACNOR2073
012021110902CGRA4       010GRAZZIOTIN  PN           R$  000000000422900000000043500000000004218000000000430300000000042860000000004285000000000429200028000000000000004900000000000021087500000000000000009999123100000010000000000000BRCGRAACNPR9073
012021110902CHCM34      010CHARTER COMMDRN          R$  000000000625100000000065890000000006251000000000633300000000065890000000005988000000000658900023000000000000009377000000000059387792000000000000009999123100000010000000000000BRCHCMBDR001101
012021110902CHVX34      010CHEVRON     DRN          R$  000000000638200000000063900000000006285000000000634100000000063480000000006348000000000636000503000000000000012645000000000080187157000000000000009999123100000010000000000000BRCHVXBDR008143
012021110902CIEL3       010CIELO       ON  EJ  NM   R$  000000000023700000000002500000000000237000000000024300000000002470000000000247000000000024813519000000000041668400000000010164169800000000000000009999123100000010000000000000BRCIELACNOR3147
012021110902CLSA3       010CLEARSALE   ON      NM   R$  000000000186900000000019060000000001810000000000183900000000018540000000001833000000000185403285000000000000567000000000001042964300000000000000009999123100000010000000000000BRCLSAACNOR0100
012021110902CLSC3       010CELESC      ON      N2   R$  000000000620000000000063000000000006200000000000628000000000063000000000006100000000000630000004000000000000000500000000000003140000000000000000009999123100000010000000000000BRCLSCACNOR6138
012021110902CLSC4       010CELESC      PN      N2   R$  000000000678300000000069470000000006783000000000685000000000068830000000006806000000000688400018000000000000002200000000000015071700000000000000009999123100000010000000000000BRCLSCACNPR3117
012021110902CMCS34      010COMCAST     DRN          R$  000000000588700000000059150000000005840000000000586800000000058780000000005878000000000601300071000000000000022412000000000131523474000000000000009999123100000010000000000000BRCMCSBDR008141
012021110902CMIG3       010CEMIG       ON      N1   R$  000000000168000000000017400000000001680000000000172100000000017170000000001717000000000172301285000000000000257000000000000442376800000000000000009999123100000010000000000000BRCMIGACNOR6227
012021110902CMIG4       010CEMIG       PN      N1   R$  000000000132400000000013640000000001317000000000135100000000013470000000001346000000000134812068000000000007651800000000010338085100000000000000009999123100000010000000000000BRCMIGACNPR3228
012021110902CMIN3       010CSNMINERACAOON      N2   R$  000000000057400000000006000000000000568000000000058200000000005760000000000576000000000057821402000000000013874400000000008078353900000000000000009999123100000010000000000000BRCMINACNOR2102
012021110902COCA34      010COCA COLA   DRN          R$  000000000520600000000052060000000005008000000000516400000000051620000000005162000000000517401628000000000000045439000000000234668777000000000000009999123100000010000000000000BRCOCABDR002141
012021110902COCE5       010COELCE      PNA EJ       R$  000000000494000000000050390000000004901000000000496700000000049490000000004949000000000498800099000000000000016000000000000079475500000000000000009999123100000010000000000000BRCOCEACNPA3142
012021110902COGN3       010COGNA ON    ON      NM   R$  000000000028000000000002960000000000275000000000028300000000002800000000000280000000000028123684000000000054299600000000015381914400000000000000009999123100000010000000000000BRCOGNACNOR2102
012021110902COLG34      010COLGATE     DRN          R$  000000000612500000000061380000000006084000000000610500000000061000000000005992000000000613800009000000000000000045000000000000274765000000000000009999123100000010000000000000BRCOLGBDR000143
012021110902COPH34      010COPHILLIPS  DRN          R$  000000001054500000000105920000000010284000000001034400000000104000000000010285000000001091000169000000000000004469000000000046229153000000000000009999123100000010000000000000BRCOPHBDR009140
012021110902COTY34      010COTY INC    DRN          R$  000000000300000000000030000000000002877000000000290100000000028820000000002882000000000305000133000000000000027519000000000079832965000000000000009999123100000010000000000000BRCOTYBDR006116
012021110902COWC34      010COSTCO      DRN ED       R$  000000000695000000000072130000000006905000000000695200000000072130000000006905000000000721301453000000000000052332000000000363825972000000000000009999123100000010000000000000BRCOWCBDR006126
012021110902CPFE3       010CPFL ENERGIAON      NM   R$  000000000266600000000027340000000002661000000000271100000000026970000000002697000000000271011348000000000003486000000000009452178900000000000000009999123100000010000000000000BRCPFEACNOR0132
012021110902CPLE3       010COPEL       ON      N1   R$  000000000054900000000005620000000000546000000000055500000000005520000000000552000000000055404366000000000002227000000000001237077800000000000000009999123100000010000000000000BRCPLEACNOR8144
012021110902CPLE6       010COPEL       PNB     N1   R$  000000000059800000000006220000000000597000000000061400000000006200000000000620000000000062121570000000000014359300000000008820905300000000000000009999123100000010000000000000BRCPLEACNPB9141
012021110902CPLE11      010COPEL       UNT     N1   R$  000000000290300000000030240000000002903000000000299700000000030210000000003021000000000302204126000000000000855800000000002564866200000000000000009999123100000010000000000000BRCPLECDAM13102
012021110902CRDA34      010CREDIT ACCEPDRN          R$  000000003588200000000358820000000035882000000003588200000000358820000000017500000000000000000002000000000000000270000000000009688140000000000000009999123100000010000000000000BRCRDABDR003100
012021110902CRFB3       010CARREFOUR BRON      NM   R$  000000000170400000000017800000000001704000000000176200000000017530000000001752000000000175312018000000000003418400000000006023854100000000000000009999123100000010000000000000BRCRFBACNOR2109
012021110902CRHP34      010CRH PLC     DRN          R$  000000002780000000000278000000000027800000000002780000000000278000000000000000000000000000000002000000000000000020000000000000556000000000000000009999123100000010000000000000BRCRHPBDR002104
012021110902CRIP34      010CTRIPCOM    DRN          R$  000000001700000000000170000000000016472000000001662100000000166270000000015700000000001733700005000000000000000008000000000000132970000000000000009999123100000010000000000000BRCRIPBDR000100
012021110902CRPG5       010CRISTAL     PNA          R$  000000000809900000000081270000000007800000000000794900000000078000000000007800000000000789900177000000000000023200000000000184429700000000000000009999123100000010000000000000BRCRPGACNPA3113
012021110902CSAN3       010COSAN       ON      NM   R$  000000000206000000000021460000000002055000000000211200000000021020000000002101000000000210223809000000000005673200000000011986241200000000000000009999123100000010000000000000BRCSANACNOR6121
012021110902CSCO34      010CISCO       DRN          R$  000000000629000000000063010000000006246000000000628800000000062950000000006266000000000637400014000000000000000486000000000003056290000000000000009999123100000010000000000000BRCSCOBDR004144
012021110902CSED3       010CRUZEIRO EDUON      NM   R$  000000000062900000000006290000000000591000000000060800000000006070000000000603000000000061006152000000000002035900000000001239036200000000000000009999123100000010000000000000BRCSEDACNOR9101
012021110902CSMG3       010COPASA      ON      NM   R$  000000000127900000000012980000000001272000000000128900000000012880000000001288000000000129005800000000000001613500000000002080849300000000000000009999123100000010000000000000BRCSMGACNOR5163
012021110902CSNA3       010SID NACIONALON           R$  000000000215300000000022190000000002115000000000215100000000021310000000002131000000000213630379000000000015515000000000033376230300000000000000009999123100000010000000000000BRCSNAACNOR6254
012021110902CSRN3       010COSERN      ON           R$  000000000170000000000017220000000001700000000000171100000000017220000000001590000000000172300002000000000000000200000000000000342200000000000000009999123100000010000000000000BRCSRNACNOR0175
012021110902CTGP34      010CITIGROUP   DRN ED       R$  000000000624000000000062420000000006162000000000620100000000062150000000006215000000000647900017000000000000000867000000000005376791000000000000009999123100000010000000000000BRCTGPBDR000144
012021110902CTKA4       010KARSTEN     PN           R$  000000000170000000000017050000000001699000000000170000000000017000000000001700000000000180000013000000000000004900000000000008333000000000000000009999123100000010000000000000BRCTKAACNPR7043
012021110902CTNM4       010COTEMINAS   PN           R$  000000000040800000000004180000000000396000000000039900000000003970000000000397000000000041500144000000000000050200000000000020076700000000000000009999123100000010000000000000BRCTNMACNPR6129
012021110902CTSA3       010SANTANENSE  ON           R$  000000000021000000000002140000000000208000000000021100000000002120000000000211000000000021300042000000000000010200000000000002159300000000000000009999123100000010000000000000BRCTSAACNOR3060
012021110902CTSA4       010SANTANENSE  PN           R$  000000000015000000000001550000000000150000000000015200000000001530000000000152000000000015400043000000000000018100000000000002752800000000000000009999123100000010000000000000BRCTSAACNPR0060
012021110902CTSH34      010COGNIZANT   DRN          R$  000000004430800000000443080000000044308000000004430800000000443080000000000000000000000000000001000000000000000008000000000000354464000000000000009999123100000010000000000000BRCTSHBDR002118
012021110902CURY3       010CURY S/A    ON      NM   R$  000000000068800000000007360000000000688000000000072400000000007220000000000722000000000072303912000000000000705100000000000510785500000000000000009999123100000010000000000000BRCURYACNOR3101
012021110902CVCB3       010CVC BRASIL  ON      NM   R$  000000000169100000000017560000000001683000000000170800000000017100000000001704000000000171015092000000000010127300000000017300626100000000000000009999123100000010000000000000BRCVCBACNOR1114
012021110902CVSH34      010CVS HEALTH  DRN          R$  000000002592200000000259220000000025500000000002581200000000255840000000000000000000002580000004000000000000000029000000000000748574000000000000009999123100000010000000000000BRCVSHBDR008122
012021110902CXSE3       010CAIXA SEGURION  ED  NM   R$  000000000090200000000009160000000000899000000000090600000000009060000000000906000000000090806599000000000002122300000000001924013600000000000000009999123100000010000000000000BRCXSEACNOR7101
012021110902CYRE3       010CYRELA REALTON      NM   R$  000000000149800000000015900000000001492000000000156500000000015610000000001561000000000156519556000000000006287500000000009840147900000000000000009999123100000010000000000000BRCYREACNOR7136
012021110902D1DG34      010DATADOG INC DRN          R$  000000001057000000000108050000000010570000000001075200000000108050000000003500000000000000000047000000000000003871000000000041623492000000000000009999123100000010000000000000BRD1DGBDR001100
012021110902D1EL34      010DELL TECHNOLDRN EC       R$  000000003084500000000308450000000030642000000003084000000000308400000000030100000000003200000003000000000000000132000000000004070984000000000000009999123100000010000000000000BRD1ELBDR009101
012021110902D1EX34      010DEXCOM INC  DRN          R$  000000000706300000000071120000000007049000000000711000000000070490000000005663000000000790000005000000000000025463000000000181064866000000000000009999123100000010000000000000BRD1EXBDR004100
012021110902D1HI34      010DR HORTON INDRN          R$  000000005361400000000536140000000053614000000005361400000000536140000000000000000000000000000001000000000000000008000000000000428912000000000000009999123100000010000000000000BRD1HIBDR008107
012021110902D1IS34      010DISH NETWORKDRN          R$  000000002056000000000205600000000020433000000002055300000000204330000000000000000000000000000002000000000000000037000000000000760466000000000000009999123100000010000000000000BRD1ISBDR005100
012021110902D1OC34      010DOCUSIGN INCDRN          R$  000000000758400000000076200000000007496000000000754500000000075280000000007452000000000795700412000000000000001686000000000012722216000000000000009999123100000010000000000000BRD1OCBDR007100
012021110902D1OW34      010DOW INC     DRN          R$  000000000807200000000080720000000008072000000000807200000000080720000000001000000000000850000001000000000000000015000000000000121080000000000000009999123100000010000000000000BRD1OWBDR005104
012021110902D1RE34      010DUKE REALTY DRN          R$  000000003190000000000319000000000031900000000003190000000000319000000000000000000000003200000001000000000000000002000000000000063800000000000000009999123100000010000000000000BRD1REBDR006107
012021110902D1VN34      010DEVON ENERGYDRN          R$  000000002445000000000244500000000024450000000002445000000000244500000000017111000000002450000001000000000000000001000000000000024450000000000000009999123100000010000000000000BRD1VNBDR009108
012021110902D2AS34      010DOORDASH INCDRN          R$  000000000704100000000070410000000007016000000000702800000000070160000000007035000000000000000003000000000000000199000000000001398684000000000000009999123100000010000000000000BRD2ASBDR000100
012021110902D2PZ34      010DOMINOSPIZZADRN          R$  000000000550800000000055880000000005487000000000550800000000055050000000004201000000000590000005000000000000000276000000000001520365000000000000009999123100000010000000000000BRD2PZBDR003101
012021110902DASA3       010DASA        ON      NM   R$  000000000375800000000038930000000003754000000000383800000000038030000000003803000000000382801442000000000000173500000000000666057500000000000000009999123100000010000000000000BRDASAACNOR1120
012021110902DBAG34      010DEUTSCHE AK DRN          R$  000000000709900000000070990000000006990000000000709200000000069900000000006500000000000707500004000000000000000090000000000000638285000000000000009999123100000010000000000000BRDBAGBDR008100
012021110902DCVY34      010DISCOVERY INDRN A        R$  000000001446000000000145500000000014460000000001454200000000145350000000012500000000002200000003000000000000001001000000000014556960000000000000009999123100000010000000000000BRDCVYBDR005100
012021110902DDNB34      010DUPONT N INCDRN          R$  000000004402200000000440220000000044022000000004402200000000440220000000026000000000000000000002000000000000000003000000000000132066000000000000009999123100000010000000000000BRDDNBBDR008109
012021110902DEAI34      010DELTA       DRN          R$  000000002470000000000247000000000024181000000002436100000000243250000000022000000000002488800010000000000000000232000000000005651799000000000000009999123100000010000000000000BRDEAIBDR008116
012021110902DEEC34      010DEERE CO    DRN          R$  000000009935000000000993500000000097847000000009923300000000978470000000090320000000010000000006000000000000000110000000000010915688000000000000009999123100000010000000000000BRDEECBDR003110
012021110902DEOP34      010DIAGEO PL   DRN          R$  000000011232200000001123220000000111757000000011203900000001117570000000000000000000014127700002000000000000000002000000000000224079000000000000009999123100000010000000000000BRDEOPBDR004104
012021110902DESK3       010DESKTOP     ON      NM   R$  000000000194700000000019650000000001873000000000191600000000018730000000001873000000000188202127000000000000382600000000000733255900000000000000009999123100000010000000000000BRDESKACNOR2100
012021110902DEXP3       010DEXXOS PAR  ON      N1   R$  000000000092100000000010150000000000921000000000098700000000009740000000000974000000000099003954000000000000807900000000000797850900000000000000009999123100000010000000000000BRDEXPACNOR1101
012021110902DEXP4       010DEXXOS PAR  PN      N1   R$  000000000076500000000007860000000000745000000000076300000000007740000000000748000000000077400055000000000000025200000000000019244100000000000000009999123100000010000000000000BRDEXPACNPR8101
012021110902DHER34      010DANAHER CORPDRN          R$  000000004111800000000411180000000041118000000004111800000000411180000000000000000000000000000001000000000000000043000000000001768074000000000000009999123100000010000000000000BRDHERBDR004126
012021110902DIRR3       010DIRECIONAL  ON      NM   R$  000000000104500000000010790000000001033000000000105100000000010410000000001041000000000104406289000000000002153500000000002264648100000000000000009999123100000010000000000000BRDIRRACNOR0114
012021110902DISB34      010WALT DISNEY DRN          R$  000000000652000000000065200000000006335000000000641300000000064410000000006399000000000644103251000000000000115652000000000741777128000000000000009999123100000010000000000000BRDISBBDR006115
012021110902DMMO3       010DOMMO       ON           R$  000000000007200000000000730000000000071000000000007200000000000730000000000072000000000007300393000000000001789700000000000129117500000000000000009999123100000010000000000000BRDMMOACNOR0104
012021110902DMVF3       010D1000VFARMA ON      NM   R$  000000000060000000000006180000000000595000000000060800000000006000000000000600000000000060600293000000000000098900000000000060174100000000000000009999123100000010000000000000BRDMVFACNOR9100
012021110902DOHL4       010DOHLER      PN           R$  000000000061200000000006170000000000590000000000060300000000006170000000000600000000000061700022000000000000010600000000000006395300000000000000009999123100000010000000000000BRDOHLACNPR9065
012021110902DOTZ3       010DOTZ SA     ON      NM   R$  000000000049500000000005440000000000495000000000052500000000005260000000000526000000000053900183000000000000100900000000000053016000000000000000009999123100000010000000000000BRDOTZACNOR7100
012021110902DTCY3       010DTCOM-DIRECTON           R$  000000000070900000000007350000000000705000000000070800000000007350000000000706000000000074500009000000000000002600000000000001843100000000000000009999123100000010000000000000BRDTCYACNOR5109
012021110902DUKB34      010DUKE ENERGY DRN          R$  000000005585300000000558970000000055853000000005587600000000558970000000000000000000000000000003000000000000000004000000000000223506000000000000009999123100000010000000000000BRDUKBBDR008120
012021110902DXCO3       010DEXCO       ON      NM   R$  000000000163900000000016850000000001621000000000166500000000016680000000001664000000000166809075000000000002726400000000004540823500000000000000009999123100000010000000000000BRDXCOACNOR8100
012021110902E1CL34      010ECOLAB INC  DRN          R$  000000003178200000000317820000000031782000000003178200000000317820000000000000000000000000000001000000000000002028000000000064453896000000000000009999123100000010000000000000BRE1CLBDR002107
012021110902E1CO34      010ECOPETROL SADRN          R$  000000000409800000000040980000000004098000000000409800000000040980000000004098000000000000000001000000000000000001000000000000004098000000000000009999123100000010000000000000BRE1COBDR006101
012021110902E1DU34      010NEW ORIENTALDRN          R$  000000000007800000000000790000000000074000000000007500000000000750000000000075000000000007600062000000000000064648000000000004852437000000000000009999123100000010000000000000BRE1DUBDR001101
012021110902E1MR34      010EMERSON ELECDRN          R$  000000005454000000000545400000000054540000000005454000000000545400000000000000000000000000000001000000000000000002000000000000109080000000000000009999123100000010000000000000BRE1MRBDR008107
012021110902E1NI34      010ENEL AMERICADRN          R$  000000000334200000000034530000000003342000000000342500000000033960000000003342000000000348500008000000000000000036000000000000123322000000000000009999123100000010000000000000BRE1NIBDR005102
012021110902E1QN34      010EQUINOR ASA DRN          R$  000000000747700000000074770000000007477000000000747700000000074770000000006142000000000747700001000000000000000250000000000001869250000000000000009999123100000010000000000000BRE1QNBDR008104
012021110902E1RI34      010ERICSSON LM DRN          R$  000000000308100000000030810000000003075000000000307700000000030750000000003000000000000350000002000000000000000006000000000000018462000000000000009999123100000010000000000000BRE1RIBDR006102
012021110902E1SS34      010ESSEX PROPERDRN          R$  000000001870000000000187000000000018615000000001862100000000186390000000018000000000001970000003000000000000000289000000000005381483000000000000009999123100000010000000000000BRE1SSBDR003107
012021110902E1TN34      010EATON CORP PDRN          R$  000000004841100000000484110000000048105000000004826700000000483840000000030000000000000000000004000000000000000021000000000001013607000000000000009999123100000010000000000000BRE1TNBDR002107
012021110902E1VE34      010EVEREST RE GDRN          R$  000000003725000000000374000000000037250000000003727600000000374000000000000000000000000000000005000000000000000023000000000000857350000000000000009999123100000010000000000000BRE1VEBDR007107
012021110902E1XC34      010EXELON CORP DRN          R$  000000002971000000000297100000000029710000000002971000000000297100000000000000000000000000000001000000000000000105000000000003119550000000000000009999123100000010000000000000BRE1XCBDR007107
012021110902E1XR34      010EXTRA SPACE DRN          R$  000000002710000000000271000000000027100000000002710000000000271000000000017777000000002899900001000000000000000020000000000000542000000000000000009999123100000010000000000000BRE1XRBDR005107
012021110902E2EF34      010EURONETWORLDDRN          R$  000000000425400000000042540000000004254000000000425400000000042540000000004000000000000000000001000000000000000100000000000000425400000000000000009999123100000010000000000000BRE2EFBDR008100
012021110902E2TS34      010ETSY INC    DRN          R$  000000000969300000000096930000000009456000000000947400000000094560000000007000000000000000000002000000000000000025000000000000236874000000000000009999123100000010000000000000BRE2TSBDR009100
012021110902EAIN34      010ELECTR ARTS DRN          R$  000000003793900000000383770000000037939000000003837200000000383770000000037900000000004100000003000000000000000138000000000005295368000000000000009999123100000010000000000000BREAINBDR007104
012021110902EALT3       010ACO ALTONA  ON           R$  000000000111500000000011150000000001115000000000111500000000011150000000001116000000000116900001000000000000000100000000000000111500000000000000009999123100000010000000000000BREALTACNOR4134
012021110902EALT4       010ACO ALTONA  PN           R$  000000000062700000000006440000000000620000000000063000000000006290000000000629000000000063000097000000000000025900000000000016325500000000000000009999123100000010000000000000BREALTACNPR1134
012021110902EBAY34      010EBAY        DRN          R$  000000002031600000000205420000000020130000000002035000000000203500000000020130000000002054000032000000000000000538000000000010948596000000000000009999123100000010000000000000BREBAYBDR009112
012021110902ECOR3       010ECORODOVIAS ON  ATZ NM   R$  000000000087900000000009090000000000875000000000089900000000008920000000000892000000000089311679000000000004712200000000004236406100000000000000009999123100000010000000000000BRECORACNOR8117
012021110902EGIE3       010ENGIE BRASILON      NM   R$  000000000394800000000040110000000003942000000000398400000000039680000000003968000000000397606368000000000001186400000000004727704800000000000000009999123100000010000000000000BREGIEACNOR9116
012021110902EKTR3       010ELEKTRO     ON           R$  000000000360800000000036080000000003608000000000360800000000036080000000002100000000000360800001000000000000000100000000000000360800000000000000009999123100000010000000000000BREKTRACNOR0147
012021110902EKTR4       010ELEKTRO     PN           R$  000000000266600000000026660000000002600000000000263600000000026110000000002611000000000270000012000000000000007300000000000019249400000000000000009999123100000010000000000000BREKTRACNPR7147
012021110902ELCI34      010ESTEE LAUDERDRN          R$  000000009519900000000955450000000095199000000009522300000000955450000000000000000000000000000002000000000000000215000000000020472975000000000000009999123100000010000000000000BRELCIBDR007108
012021110902ELET3       010ELETROBRAS  ON      N1   R$  000000000341700000000035960000000003402000000000352400000000034940000000003494000000000349521435000000000004601800000000016218553900000000000000009999123100000010000000000000BRELETACNOR6157
012021110902ELET6       010ELETROBRAS  PNB     N1   R$  000000000336000000000035520000000003360000000000349000000000034550000000003454000000000345507990000000000001584500000000005530015000000000000000009999123100000010000000000000BRELETACNPB7074
012021110902ELMD3       010ELETROMIDIA ON      NM   R$  000000000158000000000015910000000001512000000000154300000000015400000000001540000000000154100757000000000000153900000000000237477300000000000000009999123100000010000000000000BRELMDACNOR3100
012021110902EMAE4       010EMAE        PN           R$  000000000809500000000080950000000007835000000000797400000000078380000000007838000000000800500050000000000000006100000000000048647000000000000000009999123100000010000000000000BREMAEACNPR1118
012021110902EMBR3       010EMBRAER     ON      NM   R$  000000000228000000000023730000000002275000000000233700000000023370000000002336000000000233714048000000000006400700000000014961675800000000000000009999123100000010000000000000BREMBRACNOR4190
012021110902ENAT3       010ENAUTA PART ON      NM   R$  000000000135100000000014430000000001349000000000141600000000014150000000001415000000000142206871000000000001708300000000002419784800000000000000009999123100000010000000000000BRENATACNOR0102
012021110902ENBR3       010ENERGIAS BR ON      NM   R$  000000000201100000000020460000000002005000000000203100000000020210000000002021000000000202611007000000000002963500000000006021672900000000000000009999123100000010000000000000BRENBRACNOR2131
012021110902ENEV3       010ENEVA       ON      NM   R$  000000000152500000000015710000000001519000000000155500000000015530000000001553000000000155414911000000000003566300000000005547476600000000000000009999123100000010000000000000BRENEVACNOR8105
012021110902ENGI3       010ENERGISA    ON      N2   R$  000000000141100000000014590000000001411000000000144100000000014470000000001427000000000144700028000000000000002900000000000004181500000000000000009999123100000010000000000000BRENGIACNOR0140
012021110902ENGI4       010ENERGISA    PN      N2   R$  000000000065700000000006720000000000656000000000066200000000006710000000000658000000000067100039000000000000011400000000000007556100000000000000009999123100000010000000000000BRENGIACNPR7136
012021110902ENGI11      010ENERGISA    UNT     N2   R$  000000000403000000000041490000000004027000000000409700000000040810000000004081000000000408607548000000000001196700000000004902928100000000000000009999123100000010000000000000BRENGICDAM16130
012021110902ENJU3       010ENJOEI      ON      NM   R$  000000000040300000000004260000000000403000000000041500000000004120000000000410000000000041204054000000000002313300000000000961934800000000000000009999123100000010000000000000BRENJUACNOR9100
012021110902ENMT3       010ENERGISA MT ON           R$  000000000805100000000080510000000008051000000000805100000000080510000000007820000000000840000001000000000000000100000000000000805100000000000000009999123100000010000000000000BRENMTACNOR5113
012021110902EPAR3       010EMBPAR S/A  ON           R$  000000000114100000000011460000000001127000000000113800000000011270000000001130000000000116200003000000000000000300000000000000341400000000000000009999123100000010000000000000BREPARACNOR9100
012021110902EQIX34      010EQUINIX INC DRN          R$  000000000559000000000055900000000005493000000000551600000000054930000000005233000000000549300005000000000000006705000000000036985201000000000000009999123100000010000000000000BREQIXBDR002111
012021110902EQMA3B      010EQTLMARANHAOON      MB   R$  000000000429200000000042920000000004292000000000429200000000042920000000004283000000000430000001000000000000012000000000000051504000000000000000009999123100000010000000000000BREQMAACNOR8104
012021110902EQPA3       010EQTL PARA   ON           R$  000000000050000000000005020000000000500000000000050000000000005020000000000500000000000050300005000000000000001400000000000000700800000000000000009999123100000010000000000000BREQPAACNOR1104
012021110902EQTL3       010EQUATORIAL  ON      NM   R$  000000000226500000000023670000000002262000000000234200000000023270000000002327000000000233226400000000000006801200000000015932896800000000000000009999123100000010000000000000BREQTLACNOR0127
012021110902ESPA3       010ESPACOLASER ON      NM   R$  000000000101400000000010410000000001000000000000102300000000010270000000001027000000000102906153000000000001571800000000001608853400000000000000009999123100000010000000000000BRESPAACNOR7102
012021110902EUCA3       010EUCATEX     ON      N1   R$  000000000149900000000014990000000001450000000000146300000000014500000000001450000000000147600005000000000000000600000000000000878000000000000000009999123100000010000000000000BREUCAACNOR1153
012021110902EUCA4       010EUCATEX     PN      N1   R$  000000000083000000000008410000000000800000000000082300000000008300000000000830000000000083600195000000000000056000000000000046122100000000000000009999123100000010000000000000BREUCAACNPR8040
012021110902EVEN3       010EVEN        ON      NM   R$  000000000065700000000007000000000000656000000000068900000000006900000000000689000000000069107336000000000001894900000000001306410200000000000000009999123100000010000000000000BREVENACNOR8114
012021110902EXXO34      010EXXON MOBIL DRN          R$  000000000906100000000092070000000008919000000000912600000000090750000000009075000000000921000128000000000000024408000000000222749109000000000000009999123100000010000000000000BREXXOBDR006144
012021110902EZTC3       010EZTEC       ON      NM   R$  000000000191400000000020580000000001914000000000202200000000020210000000002021000000000202509187000000000002209900000000004469761000000000000000009999123100000010000000000000BREZTCACNOR0115
012021110902F1AN34      010DIAMONDBACK DRN ED       R$  000000003211900000000321190000000031040000000003128700000000310400000000000000000000000000000003000000000000000066000000000002064953000000000000009999123100000010000000000000BRF1ANBDR001108
012021110902F1FI34      010F5 NETWORKS DRN          R$  000000003050400000000309690000000030504000000003090400000000309690000000000000000000000000000003000000000000000011000000000000339946000000000000009999123100000010000000000000BRF1FIBDR000100
012021110902F1MC34      010FMC CORP    DRN          R$  000000002952200000000295220000000029522000000002952200000000295220000000025000000000000000000001000000000000000013000000000000383786000000000000009999123100000010000000000000BRF1MCBDR009107
012021110902F1NI34      010FIDELITY NATDRN          R$  000000000395600000000039560000000003956000000000395600000000039560000000003748000000000426400002000000000000016426000000000064981256000000000000009999123100000010000000000000BRF1NIBDR004108
012021110902F1RA34      010FRANKLIN RESDRN          R$  000000001967500000000196750000000019640000000001965300000000196400000000000000000000000000000002000000000000000016000000000000314450000000000000009999123100000010000000000000BRF1RABDR002107
012021110902F1SL34      010FASTLY INC  DRN          R$  000000000278500000000027850000000002785000000000278500000000027850000000001800000000000304000001000000000000000170000000000000473450000000000000009999123100000010000000000000BRF1SLBDR007100
012021110902F1TN34      010FORTINET INCDRN          R$  000000009506000000000956420000000095060000000009509700000000956420000000090915000000009694600002000000000000000031000000000002948024000000000000009999123100000010000000000000BRF1TNBDR001100
012021110902F1TV34      010FORTIVE CORPDRN          R$  000000002162600000000216260000000021626000000002162600000000216260000000000000000000000000000001000000000000000022000000000000475772000000000000009999123100000010000000000000BRF1TVBDR004108
012021110902F2NV34      010FRANCONEVADADRN          R$  000000000535000000000053500000000005253000000000531700000000052530000000005170000000000000000002000000000000000015000000000000079765000000000000009999123100000010000000000000BRF2NVBDR005101
012021110902FBOK34      010FACEBOOK    DRN          R$  000000000669900000000066990000000006545000000000659800000000066040000000006560000000000660402733000000000000270380000000001784105543000000000000009999123100000010000000000000BRFBOKBDR006101
012021110902FCXO34      010FREEPORT    DRN          R$  000000002156100000000215610000000021030000000002121900000000214240000000021424000000002200000026000000000000000472000000000010015521000000000000009999123100000010000000000000BRFCXOBDR007135
012021110902FDMO34      010FORD MOTORS DRN          R$  000000001136500000000113960000000010660000000001102500000000110300000000010489000000001119901478000000000000037947000000000418383926000000000000009999123100000010000000000000BRFDMOBDR008133
012021110902FDXB34      010FEDEX CORP  DRN          R$  000000013689600000001368960000000136896000000013689600000001368960000000000000000000015777700001000000000000000001000000000000136896000000000000009999123100000010000000000000BRFDXBBDR002132
012021110902FESA3       010FERBASA     ON      N1   R$  000000000482100000000049990000000004821000000000491000000000049990000000004821000000000510000002000000000000000200000000000000982000000000000000009999123100000010000000000000BRFESAACNOR8175
012021110902FESA4       010FERBASA     PN      N1   R$  000000000480000000000048290000000004677000000000475100000000047450000000004745000000000475702053000000000000396200000000001882356200000000000000009999123100000010000000000000BRFESAACNPR5071
012021110902FIQE3       010UNIFIQUE    ON      NM   R$  000000000059300000000006120000000000570000000000058400000000005800000000000573000000000058002384000000000000598000000000000349339000000000000000009999123100000010000000000000BRFIQEACNOR5100
012021110902FLRY3       010FLEURY      ON      NM   R$  000000000206200000000021060000000002050000000000208300000000020870000000002078000000000208707638000000000001378800000000002872284700000000000000009999123100000010000000000000BRFLRYACNOR5130
012021110902FLTC34      010FLEETCOR TECDRN          R$  000000003369500000000336950000000033695000000003369500000000336950000000000000000000000000000001000000000000000006000000000000202170000000000000009999123100000010000000000000BRFLTCBDR001100
012021110902FOXC34      010FOX CORP    DRN          R$  000000002339400000000233940000000022316000000002281500000000225000000000000000000000002350000005000000000000000009000000000000205340000000000000009999123100000010000000000000BRFOXCBDR007104
012021110902FRAS3       010FRAS-LE     ON      N1   R$  000000000156900000000015800000000001505000000000151800000000015280000000001528000000000153401578000000000000229600000000000348668700000000000000009999123100000010000000000000BRFRASACNOR0152
012021110902FSLR34      010FIRST SOLAR DRN          R$  000000003041000000000315000000000030410000000003100300000000315000000000029000000000003200000009000000000000001065000000000033019155000000000000009999123100000010000000000000BRFSLRBDR001100
012021110902G1FI34      010GOLD FIELDS DRN          R$  000000000261600000000026160000000002589000000000260300000000026040000000002400000000000261500003000000000000000027000000000000070305000000000000009999123100000010000000000000BRG1FIBDR009102
012021110902G1MI34      010GENERAL MILLDRN          R$  000000003444000000000344400000000034440000000003444000000000344400000000034000000000004328600001000000000000000006000000000000206640000000000000009999123100000010000000000000BRG1MIBDR005107
012021110902G1PC34      010GENUINE PARTDRN          R$  000000003722200000000372220000000037222000000003722200000000372220000000000000000000000000000002000000000000000005000000000000186110000000000000009999123100000010000000000000BRG1PCBDR001107
012021110902G1PI34      010GLOBAL PAYMEDRN          R$  000000001841100000000184110000000018300000000001830700000000183000000000018000000000002150000002000000000000000015000000000000274611000000000000009999123100000010000000000000BRG1PIBDR008107
012021110902G1RM34      010GARMIN LTD  DRN          R$  000000004075400000000407540000000039680000000003970500000000397700000000000000000000000000000004000000000000000078000000000003097032000000000000009999123100000010000000000000BRG1RMBDR006107
012021110902G1SK34      010GLAXOSMITHKLDRN          R$  000000000473400000000047340000000004696000000000471400000000046960000000004299000000000500000005000000000000000057000000000000268729000000000000009999123100000010000000000000BRG1SKBDR008104
012021110902G1WW34      010WW GRAINGER DRN ED       R$  000000000619500000000066080000000006195000000000659800000000066080000000006195000000000000000003000000000000027243000000000179770910000000000000009999123100000010000000000000BRG1WWBDR005109
012021110902G2DI33      010G2D INVEST  DR3          R$  000000000062900000000006430000000000620000000000062800000000006340000000000625000000000063401703000000000000154623000000000097196343000000000000009999123100000010000000000000BRG2DIBDR002100
012021110902GDBR34      010GEN DYNAMICSDRN          R$  000000011129000000001114000000000111290000000011136300000001114000000000000000000000000000000002000000000000000003000000000000334090000000000000009999123100000010000000000000BRGDBRBDR002125
012021110902GEOO34      010GE          DRN          R$  000000006500400000000652000000000060899000000006273300000000610800000000060283000000006175400266000000000000006038000000000378786340000000000000009999123100000010000000000000BRGEOOBDR000146
012021110902GEPA4       010GER PARANAP PN           R$  000000000326800000000032680000000003229000000000324800000000032290000000003210000000000340000002000000000000000200000000000000649700000000000000009999123100000010000000000000BRGEPAACNPR9155
012021110902GETT3       010GETNET BR   ON           R$  000000000025300000000002590000000000246000000000025200000000002510000000000248000000000025100980000000000000803000000000000202429900000000000000009999123100000010000000000000BRGETTACNOR4100
012021110902GETT4       010GETNET BR   PN           R$  000000000021100000000002180000000000209000000000021300000000002120000000000211000000000021200649000000000000281600000000000060256200000000000000009999123100000010000000000000BRGETTACNPR1100
012021110902GETT11      010GETNET BR   UNT          R$  000000000046900000000004740000000000455000000000046600000000004670000000000465000000000046704531000000000001672000000000000779717000000000000000009999123100000010000000000000BRGETTCDAM17100
012021110902GFSA3       010GAFISA      ON      NM   R$  000000000021500000000002320000000000215000000000022600000000002260000000000226000000000022704109000000000010761500000000002437358600000000000000009999123100000010000000000000BRGFSAACNOR3120
012021110902GGBR3       010GERDAU      ON  EDJ N1   R$  000000000198900000000020200000000001947000000000199200000000020070000000001997000000000200700254000000000000052300000000000104204100000000000000009999123100000010000000000000BRGGBRACNOR1180
